:100000000020001005010000C1000000C100000038
:1000100000000000000000000000000000000000E0
:10002000000000000000000000000000C10000000F
:100030000000000000000000C1000000C10300003B
:10004000C1000000C1000000C1000000C1000000AC
:10005000C1000000C1000000C1000000C10000009C
:10006000C1000000C1000000C1000000C10000008C
:10007000C1000000C1000000C1000000C10000007C
:10008000C1000000C1000000C1000000C10000006C
:10009000C1000000A9030000C1000000C100000071
:1000A000C1000000C1000000C1000000C10000004C
:1000B000C1000000C1000000C1000000610B000091
:1000C000FEE7C0460022094B1A602332084B1A6033
:1000D000084A136880218B4313600123064A13608A
:1000E0007D39064A1160064A13607047408004401B
:1000F00008800440388204404480044070800440FA
:100100007480044010B50E490E4B591A07D00023D5
:100110000B4C0D48C25CE25401339942FAD10B49B1
:100120000B4B591A07D00023084C00201A191070E5
:1001300001338B42FAD1FFF7C5FF00F00DFE10BD71
:100140000000001000000010B410000000000010BB
:100150006000001008B5FFF7D5FF08BD036819431C
:100160000160704703688B430360704708B50B1C40
:10017000012803D14048111C98477CE0022803D194
:100180003E48111C984776E0032803D13C48111CD7
:10019000984770E0042803D13A48111C98476AE058
:1001A000052803D13848111C984764E0062803D17C
:1001B0003648111C98475EE0092803D13448111CC9
:1001C000984758E00A2803D13248111C984752E05A
:1001D0000B2803D13048111C98474CE00C2803D160
:1001E0002E48111C984746E00D2803D12C48111CBD
:1001F000984740E00E2803D12A48111C98473AE05E
:100200000F2803D12848111C984734E0102803D147
:100210002648111C98472EE0112803D12448111CB0
:10022000984728E0122803D12248111C984722E061
:10023000172803D12048111C98471CE0182803D127
:100240001E48111C984716E0192803D11C48111CA0
:10025000984710E01A2803D11A48111C98470AE061
:100260001B2803D11848111C984704E01C2802D110
:100270001648111C984708BD604004406440044083
:100280006840044074400440344004404C40044002
:10029000784004407C40044080400440904004404A
:1002A00094400440A0400440A4400440A8400440BE
:1002B00014400440384004400C40044010400440C6
:1002C0001C4004402C400440304004405040044056
:1002D0000823012854D0022829D0032829D0042833
:1002E00029D0052829D0062829D0092829D00A286C
:1002F00029D00B2829D00C2829D00D2829D00E2848
:1003000029D00F2829D0102829D0112829D0122827
:1003100029D0172829D0182829D0192829D01A28F7
:1003200029D01B2829D01C2829D0043328E00923F0
:1003300026E00A2324E00B2322E0052320E0062305
:100340001EE000231CE001231AE0022318E003232F
:1003500016E0042314E0052312E0062310E007232F
:100360000EE008230CE009230AE0002308E0012343
:1003700006E0022304E0032302E0042300E0072355
:10038000181C704738B5041C0D1C05490722FFF7DF
:10039000EDFE201C03492A1CFFF7E8FE38BDC046CD
:1003A000650100005D01000008B5044B1B68002BCF
:1003B00001D0984700E0FEE708BDC04600000010ED
:1003C00008B5044B5B68002B01D0984700E0FEE7BE
:1003D00008BDC0460000001038B5051C012A08D130
:1003E0000468081CFFF774FF012383409C43201C12
:1003F00007E00468081CFFF76BFF01238340181C0B
:100400002043286038BDC04608B5031C0A1C011CE7
:100410000939092904D80548191CFFF7DDFF03E055
:100420000348191CFFF7D8FF08BDC04600800150E3
:100430000080005010B50468081CFFF749FF012335
:100440008340181C2040431E984110BD38B5051C40
:10045000012A08D10468081CFFF73AFF01238340F2
:10046000181C204307E00468081CFFF731FF012334
:1004700083409C43201C286038BDC04608B5031C3F
:100480000A1C011C0939092904D80548191CFFF761
:10049000DDFF03E00348191CFFF7D8FF08BDC04685
:1004A000FC3F0150FC3F005008B5011C031C093BF8
:1004B000092B03D80348FFF7BDFF02E00248FFF70E
:1004C000B9FF08BDFC3F0150FC3F005038B5041C8B
:1004D0000D1C124A136812490B431360C31E012BF3
:1004E00008D90121063B032B05D9011C17394B42C2
:1004F000594100E00121201CFFF744FF201C09495D
:100500001822FFF733FE201C07490822FFF72EFEB2
:10051000201C291CFFF778FF38BDC04680800440AE
:1005200040000100650100005D01000070B5041C81
:100530000E1C151C0121FFF7C9FF231C093B092BC9
:1005400029D9201CFFF7C4FE01238340274C2168D2
:10055000DA4311402160264C216811402160012EB0
:1005600003D1244A12681A4302E0224909680A406A
:1005700020490A60204A136020490A6813430B602F
:100580001F4A1368802109060B43136080001D4B2E
:100590001818856028E0201CFFF79AFE012383408D
:1005A000194C2168DA4311402160184C2168114030
:1005B0002160012E03D1164A12681A4302E0144941
:1005C00009680A4012490A60124A136012490A680F
:1005D00013430B600A4A13688021C9050B4313605B
:1005E0008000084B1818856362B670BD0480005007
:1005F000088000500C8000501C800050108000507B
:1006000000E100E00000001004800150088001506B
:100610000C8001501C8001501080015010B5224AFE
:100620001368224C23431360002813D113688020E1
:100630008000034313601E4800F03AFC1D4B186015
:1006400080221D4B1A6000221C4B1A6001321C4B89
:100650001A6028E0012814D1134A13688020C000D2
:1006600003431360124800F023FC164B18608022ED
:10067000154B1A600022154B1A600132144B1A6098
:1006800011E0094A1368802423431360084800F0EE
:100690000FFC104B1860104B1C6000220F4B1A60AF
:1006A00001320F4B1A6010BD8080044040200100D1
:1006B000006CDC0220400140144001400840014031
:1006C0000440014020800140148001400880014026
:1006D0000480014020C0004014C0004008C0004019
:1006E00004C0004010B50C1C012812D10221FFF7F4
:1006F00049FE514A116801230B4313604F4B1B689D
:100700006420001B5843642100F042FB4C4B1860EE
:1007100091E0022812D10221FFF734FE464A116807
:1007200002230B431360454B1B686420001B584396
:10073000642100F02DFB434B18607CE0042812D1AB
:100740000321FFF71FFE404A116808230B43136083
:100750003E4B1B686420001B5843642100F018FBCB
:100760003B4B186067E00F2812D10221FFF70AFE09
:10077000354A116801230B431360344B1B68642016
:10078000001B5843642100F003FB324B186052E019
:10079000102812D10221FFF7F5FD2B4A1168022320
:1007A0000B431360294B1B686420001B58436421D2
:1007B00000F0EEFA284B18603DE00A2812D1032120
:1007C000FFF7E0FD254A116801230B431360244B1A
:1007D0001B686420001B5843642100F0D9FA214BA8
:1007E000186028E00B2812D10321FFF7CBFD1B4A2C
:1007F000116802230B431360194B1B686420001B14
:100800005843642100F0C4FA174B186013E00D2818
:1008100011D10221FFF7B6FD104A116808230B43DE
:1008200013600F4B1B686420001B5843642100F0C9
:10083000AFFA0E4B186010BD74C0004020C00040DD
:1008400018C000401CC000407440014020400140DE
:1008500024400140184001401C4001407480014088
:1008600020800140188001401C800140248001400C
:10087000F8B5071C1E4C23681E4A134323600F2043
:100880000121FFF77FFD10200121FFF77BFD236889
:100890008022520113432360174A13680126334311
:1008A0001360164C236880252B4323601022144BC1
:1008B0001A603901134800F0FBFAC3171B0E181811
:1008C0000112114A1160FF221040C01A0F4B18602C
:1008D0002368AB4323600E4B1A6816431E602268E0
:1008E0000323134323600B4B1A6815431D60F8BDA7
:1008F0008080044040000100988004400C8000404B
:1009000028800040006CDC02048000400080004031
:100910000880004030800040044920220B681A42C1
:10092000FCD0034A136818431060704714800040DD
:100930000080004010B5041C0078002805D0FFF7A7
:10094000EBFF013420780028F9D110BD08B5FFF77E
:10095000F1FF0248FFF7EEFF08BDC046941000000B
:1009600010B5041E092C04DC3034E0B2FFF7D4FFCC
:100970000BE00A2100F09CFAFFF7F2FF201C0A218D
:1009800000F07CFB081CFFF7EBFF10BD10B503095E
:100990000F240440181C3730092B01D83033181CA1
:1009A000FFF7BAFF201C3730092C00D80738FFF7B3
:1009B000B3FF10BD70B572B600290EDD161C041C05
:1009C0004518012E03D12078FFF7E0FF02E02078E0
:1009D000FFF7A2FF0134AC42F3D162B670BDC0464E
:1009E0000522064B1A60064A1368802189030B43CF
:1009F0001360044B186062B67047C0460480004024
:100A000000E100E000000010024B1B6801201840CC
:100A10007047C04614800040014B1868C0B2704750
:100A20000080004070B572B60025074C0122074EC9
:100A300005E023681A42FCD03368435501358D42E6
:100A4000F7DB62B670BDC0461480004000800040F5
:100A5000064A136806490B431360064A13681021BF
:100A60008B431360044A054B1A6070478080044032
:100A70004020010038820440000B010000C001400A
:100A800010B5041C0449054AFFF770FB201C0449FB
:100A90000222FFF76BFB10BD65010000FFFF0000A5
:100AA0005D01000030B504280AD009280BD00A28BF
:100AB0000CD00B280DD00C280ED020250F4A0DE0AD
:100AC00001250E4A0AE002250D4A07E004250D4AD9
:100AD00004E008250C4A01E010250C4A0C4B18686C
:100AE000FF24A04318601968294319601368002B7C
:100AF000FCDA10680004800D30BDC04610C0014013
:100B000014C0014018C001401CC0014020C0014079
:100B100000C001400B4A116805230B4313602F22CC
:100B2000094B1A60002807DD0021084A1368052BCD
:100B3000FCD801318142F9D1024A136807218B4365
:100B40001360704710E000E014E000E018E000E0FF
:100B500008B5FA239B005843FFF7DCFF08BDC046E9
:100B6000F8B580221D4B1A606420FFF7F1FF1C4B83
:100B70001B681C4B1868C0B2FFF708FF1A48FFF744
:100B8000E5FE0025174E194C31680123AB40DA17FA
:100B9000D31ADB0F194207D01548FFF7CBFEAB0085
:100BA000221C08329B58984701350C2DECD10024AB
:100BB000104E0B3D0D4F31682A1CA240D3179B1AD3
:100BC000DB0F194206D0A3003A1C38329B58002B89
:100BD00000D0984701340A2CEDD1F8BD1C8000509C
:100BE0001880005014800050981000000000001081
:100BF0009C1000001480015008B5FA239B00584354
:100C0000FFF7A6FF08BDC04610B50C1C0021FFF77A
:100C10005DFC201C0121FFF759FC10BD70B5051CBF
:100C20000C1C0021FFF72AFC0520FFF773FF281C8E
:100C30000121FFF723FC0A20FFF76CFF281C00218D
:100C4000FFF71CFC1D490B68052213430B602F2185
:100C50001B4B19601B4B1A601B4E1D1C04E0201C13
:100C6000FFF722FC012802D02B68052BF7D8201CA7
:100C7000FFF71AFC012802D0013E002EF4D1052214
:100C8000104B1A6000261D1C03E02B68052BFCD8B6
:100C90000136201CFFF708FC0128F6D0074A13682C
:100CA00005218B431360002E04DD301C0E3100F053
:100CB000FFF801E00120404270BDC04610E000E0B6
:100CC00014E000E018E000E060EA000070B5061CE7
:100CD0000C1C00F0EDF8051C301C211C00F0CEF9B6
:100CE000E30F1C196410A14200DD0135281C70BD02
:100CF00010B50C1C01203221FFF790FC201C0321B1
:100D0000FFF7F0FC10BDC04610B5041C3231081CC2
:100D10001421FFF7DBFF011C201CFFF7E3FC10BDD3
:100D200000B583B0FFF770FE00280ED001A80221A5
:100D3000FFF778FE0648FFF7FDFD01A8022101221A
:100D4000FFF738FE0348FFF7F5FD03B000BDC046CE
:100D5000A41000009410000010B59620C001FFF709
:100D600087FD0948FFF73CFE01200021FFF7AEFB9D
:100D7000064C6420FFF7ECFE201CFFF7E7FD012086
:100D80000121FFF77BFBF4E7210D0000B01000000C
:100D9000002243088B4274D303098B425FD3030ABA
:100DA0008B4244D3030B8B4228D3030C8B420DD3CD
:100DB000FF22090212BA030C8B4202D3121209025B
:100DC00065D0030B8B4219D300E0090AC30B8B4299
:100DD00001D3CB03C01A5241830B8B4201D38B0347
:100DE000C01A5241430B8B4201D34B03C01A5241EC
:100DF000030B8B4201D30B03C01A5241C30A8B422F
:100E000001D3CB02C01A5241830A8B4201D38B0219
:100E1000C01A5241430A8B4201D34B02C01A5241BD
:100E2000030A8B4201D30B02C01A5241CDD2C3092F
:100E30008B4201D3CB01C01A524183098B4201D3AB
:100E40008B01C01A524143098B4201D34B01C01A96
:100E5000524103098B4201D30B01C01A5241C3080E
:100E60008B4201D3CB00C01A524183088B4201D37D
:100E70008B00C01A524143088B4201D34B00C01A69
:100E80005241411A00D20146524110467047FFE7D5
:100E900001B5002000F0FCF802BDC0460029F7D0E3
:100EA00003B5FFF775FF0EBC4243891A1847C046C9
:100EB00003460B437FD4002243088B4274D30309BB
:100EC0008B425FD3030A8B4244D3030B8B4228D35C
:100ED000030C8B420DD3FF22090212BA030C8B4282
:100EE00002D31212090265D0030B8B4219D300E022
:100EF000090AC30B8B4201D3CB03C01A5241830BA7
:100F00008B4201D38B03C01A5241430B8B4201D356
:100F10004B03C01A5241030B8B4201D30B03C01A7F
:100F20005241C30A8B4201D3CB02C01A5241830AF9
:100F30008B4201D38B02C01A5241430A8B4201D328
:100F40004B02C01A5241030A8B4201D30B02C01A52
:100F50005241CDD2C3098B4201D3CB01C01A5241B9
:100F600083098B4201D38B01C01A524143098B4242
:100F700001D34B01C01A524103098B4201D30B012B
:100F8000C01A5241C3088B4201D3CB00C01A524150
:100F900083088B4201D38B00C01A524143088B4215
:100FA00001D34B00C01A5241411A00D201465241AE
:100FB000104670475DE0CA0F00D04942031000D3CD
:100FC0004042534000229C4603098B422DD3030A22
:100FD0008B4212D3FC22890112BA030A8B420CD332
:100FE000890192118B4208D3890192118B4204D35B
:100FF00089013AD0921100E08909C3098B4201D3DB
:10100000CB01C01A524183098B4201D38B01C01A14
:10101000524143098B4201D34B01C01A524103098B
:101020008B4201D30B01C01A5241C3088B4201D33A
:10103000CB00C01A524183088B4201D38B00C01AE7
:101040005241D9D243088B4201D34B00C01A5241BE
:10105000411A00D20146634652415B10104601D34B
:101060004042002B00D54942704763465B1000D3D5
:10107000404201B5002000F00BF802BD0029F8D075
:1010800003B5FFF715FF0EBC4243891A1847C04647
:041090007047C0469F
:101094000D0A000000000000746F2068657265008E
:1010A4004920726563656976653A20006E6F700049
:0400000300000154A4
:00000001FF
