:10000000002000100D010000C1000000010A0000E6
:1000100000000000000000000000000000000000E0
:10002000000000000000000000000000C10000000F
:100030000000000000000000C1000000C903000033
:10004000C1000000C1000000C1000000C1000000AC
:10005000C1000000C1000000C1000000C10000009C
:10006000C1000000C1000000C1000000C10000008C
:10007000C1000000C1000000C1000000C10000007C
:10008000C1000000C1000000C1000000C10000006C
:100090003D0A0000B1030000C1000000C1000000E3
:1000A000C1000000C1000000C1000000C10000004C
:1000B000C1000000C1000000C1000000E103000019
:1000C000FEE7C04601230A4A13600021094A116075
:1000D0002331094A116009490A68802082430A6075
:1000E000074A13600321074A1160074A13607047EB
:1000F00078800440408004400880044038820440F6
:1001000044800440708004407480044010B50E495F
:100110000E4B591A07D000230B4C0D48C25CE25419
:1001200001339942FAD10B490B4B591A07D00023DE
:10013000084C00201A19107001338B42FAD1FFF7D6
:10014000C1FF00F0F3FE10BD000000100000001021
:10015000D4120000000000106800001008B5FFF77E
:10016000D5FF08BD036819430160704703688B43DE
:100170000360704708B50B1C012803D14048111CCF
:1001800098477CE0022803D13E48111C984776E04E
:10019000032803D13C48111C984770E0042803D180
:1001A0003A48111C98476AE0052803D13848111CC9
:1001B000984764E0062803D13648111C98475EE052
:1001C000092803D13448111C984758E00A2803D164
:1001D0003248111C984752E00B2803D13048111CBB
:1001E00098474CE00C2803D12E48111C984746E054
:1001F0000D2803D12C48111C984740E00E2803D14C
:100200002A48111C98473AE00F2803D12848111CAE
:10021000984734E0102803D12648111C98472EE057
:10022000112803D12448111C984728E0122803D133
:100230002248111C984722E0172803D12048111C9E
:1002400098471CE0182803D11E48111C984716E057
:10025000192803D11C48111C984710E01A2803D113
:100260001A48111C98470AE01B2803D11848111C92
:10027000984704E01C2802D11648111C984708BD75
:1002800060400440644004406840044074400440BE
:10029000344004404C400440784004407C400440DA
:1002A000804004409040044094400440A0400440FA
:1002B000A4400440A8400440144004403840044096
:1002C0000C400440104004401C4004402C400440BA
:1002D00030400440504004400823012854D00228F4
:1002E00029D0032829D0042829D0052829D0062878
:1002F00029D0092829D00A2829D00B2829D00C2850
:1003000029D00D2829D00E2829D00F2829D010282F
:1003100029D0112829D0122829D0172829D0182807
:1003200029D0192829D01A2829D01B2829D01C28DF
:1003300029D0043328E0092326E00A2324E00B23F4
:1003400022E0052320E006231EE000231CE0012319
:100350001AE0022318E0032316E0042314E0052327
:1003600012E0062310E007230EE008230CE0092327
:100370000AE0002308E0012306E0022304E003234F
:1003800002E0042300E00723181C704738B5041C62
:100390000D1C05490722FFF7EDFE201C03492A1C0E
:1003A000FFF7E8FE38BDC0466D01000065010000A2
:1003B00008B5044B1B68002B01D0984700E0FEE70E
:1003C00008BDC0460000001008B5044B5B68002B58
:1003D00001D0984700E0FEE708BDC04600000010CD
:1003E000F0B5474680B40024164F0126164B9846B8
:1003F0003B68351CA5402B4208D0A300424608327A
:100400009B58002B02D09847104B1D6001340C2CD8
:10041000EED100240E4F01260B4B98463B68351C4D
:10042000A5402B4208D0A300424638329B58002BEF
:1004300002D09847074B1D6001340A2CEED104BC52
:100440009046F0BD14800050000000101C80005049
:10045000148001501C80015038B5051C012A08D1B8
:100460000468081CFFF738FF012383409C43201CCD
:1004700007E00468081CFFF72FFF01238340181CC6
:100480002043286038BDC04608B5031C0A1C011C67
:100490000939092904D80548191CFFF7DDFF03E0D5
:1004A0000348191CFFF7D8FF08BDC0460080015063
:1004B0000080005010B50468081CFFF70DFF0123F1
:1004C0008340181C2040431E984110BD38B5051CC0
:1004D000012A08D10468081CFFF7FEFE01238340AF
:1004E000181C204307E00468081CFFF7F5FE0123F1
:1004F00083409C43201C286038BDC04608B5031CBF
:100500000A1C011C0939092904D80548191CFFF7E0
:10051000DDFF03E00348191CFFF7D8FF08BDC04604
:10052000FC3F0150FC3F005008B5011C031C093B77
:10053000092B03D80348FFF7BDFF02E00248FFF78D
:10054000B9FF08BDFC3F0150FC3F005038B5041C0A
:100550000D1C1A4A13681A490B431360C31E012B62
:1005600008D90121063B032B05D9011C17394B4241
:10057000594100E00121201CFFF708FF052C01D0A4
:100580001B2C0BD1201C0F49C0229200FFF7F2FD5B
:10059000201C0D4980225200FFF7ECFD201C094968
:1005A0001822FFF7E7FD201C07490822FFF7E2FDAC
:1005B000201C291CFFF768FF38BDC046808004401E
:1005C000400001006D0100006501000070B5041CD1
:1005D0000E1C151C0121FFF7B9FF231C093B092B39
:1005E00029D9201CFFF778FE01238340274C21687E
:1005F000DA4311402160264C216811402160012E10
:1006000003D1244A12681A4302E0224909680A40C9
:1006100020490A60204A136020490A6813430B608E
:100620001F4A1368802109060B43136080001D4B8D
:100630001818856028E0201CFFF74EFE0123834038
:10064000194C2168DA4311402160184C216811408F
:100650002160012E03D1164A12681A4302E01449A0
:1006600009680A4012490A60124A136012490A686E
:1006700013430B600A4A13688021C9050B431360BA
:100680008000084B1818856362B670BD0480005066
:10069000088000500C8000501C80005010800050DA
:1006A00000E100E0000000100480015008800150CB
:1006B0000C8001501C8001501080015010B5224A5E
:1006C0001368224C23431360002813D11368802041
:1006D0008000034313601E4800F0FAFC1D4B1860B5
:1006E00080221D4B1A6000221C4B1A6001321C4BE9
:1006F0001A6028E0012814D1134A13688020C00032
:1007000003431360124800F0E3FC164B186080228C
:10071000154B1A600022154B1A600132144B1A60F7
:1007200011E0094A1368802423431360084800F04D
:10073000CFFC104B1860104B1C6000220F4B1A604E
:1007400001320F4B1A6010BD808004404020010030
:10075000006CDC0220400140144001400840014090
:100760000440014020800140148001400880014085
:100770000480014020C0004014C0004008C0004078
:1007800004C0004010B50C1C012812D10221FFF753
:10079000FDFD514A116801230B4313604F4B1B6849
:1007A0006420001B5843642100F002FC4C4B18608D
:1007B00091E0022812D10221FFF7E8FD464A1168B4
:1007C00002230B431360454B1B686420001B5843F6
:1007D000642100F0EDFB434B18607CE0042812D14B
:1007E0000321FFF7D3FD404A116808230B43136030
:1007F0003E4B1B686420001B5843642100F0D8FB6B
:100800003B4B186067E00F2812D10221FFF7BEFDB5
:10081000354A116801230B431360344B1B68642075
:10082000001B5843642100F0C3FB324B186052E0B8
:10083000102812D10221FFF7A9FD2B4A11680223CB
:100840000B431360294B1B686420001B5843642131
:1008500000F0AEFB284B18603DE00A2812D10321BE
:10086000FFF794FD254A116801230B431360244BC5
:100870001B686420001B5843642100F099FB214B46
:10088000186028E00B2812D10321FFF77FFD1B4AD7
:10089000116802230B431360194B1B686420001B73
:1008A0005843642100F084FB174B186013E00D28B7
:1008B00011D10221FFF76AFD104A116808230B438A
:1008C00013600F4B1B686420001B5843642100F029
:1008D0006FFB0E4B186010BD74C0004020C000407C
:1008E00018C000401CC0004074400140204001403E
:1008F00024400140184001401C40014074800140E8
:1009000020800140188001401C800140248001406B
:10091000F8B5071C1E4C23681E4A134323600F20A2
:100920000121FFF733FD10200121FFF72FFD236880
:100930008022520113432360174A13680126334370
:100940001360164C236880252B4323601022144B20
:100950001A603901134800F0BBFBC3171B0E1818AF
:100960000112114A1160FF221040C01A0F4B18608B
:100970002368AB4323600E4B1A6816431E6022683F
:100980000323134323600B4B1A6815431D60F8BD06
:100990008080044040000100988004400C800040AA
:1009A00028800040006CDC02048000400080004091
:1009B0000880004030800040044920220B681A4221
:1009C000FCD0034A1368184310607047148000403D
:1009D0000080004010B5041C0078002805D0FFF707
:1009E000EBFF013420780028F9D110BD08B5FFF7DE
:1009F000F1FF0248FFF7EEFF08BDC046B412000049
:100A000008B50248FFF7F2FF08BDC046B812000063
:100A100010B5041E092C04DC3034E0B2FFF7CCFF23
:100A20000BE00A2100F054FBFFF7F2FF201C0A2123
:100A300000F034FC081CFFF7EBFF10BD10B51A4B9B
:100A40001B6E002B2DD0194A13680224A343136098
:100A5000154B1B6E9847164B1B681C4207D0154C54
:100A600000201349022220600B681A42FBD1104B70
:100A70001B685B0706D50F480D49042203680B6805
:100A80001A42FBD10C4A116803230B431360074A37
:100A9000116802230B431360084B1868FFF7B8FF77
:100AA00000E0FEE710BDC046000000101400044046
:100AB0000C000440080004402000044018000440DA
:100AC00010B503090F240440181C3730092B01D836
:100AD0003033181CFFF770FF201C3730092C00D86A
:100AE0000738FFF769FF10BD70B572B600290EDD3B
:100AF000161C041C4518012E03D12078FFF7E0FFD7
:100B000002E02078FFF758FF0134AC42F3D162B61F
:100B100070BDC0460522064B1A60064A1368802144
:100B200089030B431360044B186062B67047C046DC
:100B30000480004000E100E000000010024B1B6850
:100B4000012018407047C04614800040014B1868CF
:100B5000C0B270470080004070B572B60025074CE7
:100B60000122074E05E023681A42FCD03368435542
:100B700001358D42F7DB62B670BDC046148000407F
:100B800000800040064A136806490B431360064A7A
:100B9000136810218B431360044A054B1A60704799
:100BA000808004404020010038820440000B010096
:100BB00000C0014010B5041C0449054AFFF7DAFAE9
:100BC000201C04490222FFF7D5FA10BD6D01000078
:100BD000FFFF00006501000030B504280AD0092895
:100BE0000BD00A280CD00B280DD00C280ED02025B5
:100BF0000F4A0DE001250E4A0AE002250D4A07E0E2
:100C000004250D4A04E008250C4A01E010250C4A91
:100C10000C4B1868FF24A043186019682943196019
:100C20001368002BFCDA10680004800D30BDC0464C
:100C300010C0014014C0014018C001401CC0014058
:100C400020C0014000C001400138FDD17047C046BE
:100C500008B5430018188000FFF7F6FF08BDC0462E
:100C600008B5FA239B005843FFF7F2FF08BDC046C2
:100C700008B5FA239B005843FFF7F2FF08BDC046B2
:100C800010B50C1C0021FFF761FC201C0121FFF7AF
:100C90005DFC10BD70B5051C0C1C0021FFF72EFC7F
:100CA0000520FFF7D5FF281C0121FFF727FC0A20AC
:100CB000FFF7CEFF281C0021FFF720FC1E490B6820
:100CC000052213430B60E021FF311C4B19601C4BC4
:100CD0001A601C4E1D1C04E0201CFFF725FC012897
:100CE00002D02B68052BF7D8201CFFF71DFC01282C
:100CF00002D0013E002EF4D10522114B1A600026CD
:100D00001D1C03E02B68052BFCD80136201CFFF7C7
:100D10000BFC0128F6D0084A136805218B431360A9
:100D2000002E06DDB00080194000343100F0D0F90B
:100D300001E00120404270BD10E000E014E000E05E
:100D400018E000E07017000070B5061C0C1C00F0E5
:100D5000BFF9051C301C211C00F0A0FAE30F1C1980
:100D60006410A14200DD0135281C70BD10B50C1CBB
:100D70003221FFF7A3FC201C0321FFF703FD10BD68
:100D800010B5041C3231081C1421FFF7DDFF011CD3
:100D9000201CFFF7F7FC10BD10B5041C254B19688B
:100DA00001229143196019681143196022490B68A7
:100DB000224803430B60224B1A6001200121FFF7F8
:100DC000E5FA02200121FFF7E1FA02221D4B1A6029
:100DD00006200221FFF7DAFA002C10D11920012198
:100DE000FFF7D4FA184B196802229143196018686A
:100DF00004210143196019680A431A600CE01920A4
:100E00000021FFF7A3FB19200121FFF777FB0E4A12
:100E1000136804218B43136007220C4B1A60053AB8
:100E20000B4B1A6008230B4A1168013BDBB2002B05
:100E3000FAD110BD048004408080044040080100C5
:100E400094800440B040044004000440000004408A
:100E5000100004400800044070B5002911DD41185D
:100E6000084A0225084E142413681D42FCD003785A
:100E70003360013013682340042BFBD13368884270
:100E8000F2D170BD0C0004400800044030B50029C8
:100E90000BDD4118054C0422054D23681A42FCD095
:100EA0002B68037001308842F7D130BD0C0004403C
:100EB0000800044070B500290EDD4118074DFF26DB
:100EC000074C14222E6023681340042BFBD12B689F
:100ED000037001308842F5D170BDC046080004405F
:100EE0000C000440074A116802230B431360064AB2
:100EF0001368802149030B431360044B186662B6E4
:100F00007047C0461400044000E100E000000010FB
:100F100008B5FFF713FE002804D0FFF717FE0022E4
:100F2000014B1A6008BDC04664000010F8B5962059
:100F3000C001FFF7EDFC1948FFF7ECFDFFF722FEBB
:100F40000920FFF737FE01246442154E371C0920A3
:100F5000FFF742FE051C201CFFF75AFD1148FFF762
:100F600039FD281CFFF754FD2C1BE317E4185C40E7
:100F7000042C02DD3B68013300E03368084C236039
:100F80000948FFF727FD2068FFF742FD0748FFF7F4
:100F900021FD6420FFF764FE2C1CD8E7110F000030
:100FA00064000010C4120000CC120000B412000053
:100FB000002243088B4274D303098B425FD3030A98
:100FC0008B4244D3030B8B4228D3030C8B420DD3AB
:100FD000FF22090212BA030C8B4202D31212090239
:100FE00065D0030B8B4219D300E0090AC30B8B4277
:100FF00001D3CB03C01A5241830B8B4201D38B0325
:10100000C01A5241430B8B4201D34B03C01A5241C9
:10101000030B8B4201D30B03C01A5241C30A8B420C
:1010200001D3CB02C01A5241830A8B4201D38B02F7
:10103000C01A5241430A8B4201D34B02C01A52419B
:10104000030A8B4201D30B02C01A5241CDD2C3090D
:101050008B4201D3CB01C01A524183098B4201D389
:101060008B01C01A524143098B4201D34B01C01A74
:10107000524103098B4201D30B01C01A5241C308EC
:101080008B4201D3CB00C01A524183088B4201D35B
:101090008B00C01A524143088B4201D34B00C01A47
:1010A0005241411A00D20146524110467047FFE7B3
:1010B00001B5002000F0FCF802BDC0460029F7D0C1
:1010C00003B5FFF775FF0EBC4243891A1847C046A7
:1010D00003460B437FD4002243088B4274D3030999
:1010E0008B425FD3030A8B4244D3030B8B4228D33A
:1010F000030C8B420DD3FF22090212BA030C8B4260
:1011000002D31212090265D0030B8B4219D300E0FF
:10111000090AC30B8B4201D3CB03C01A5241830B84
:101120008B4201D38B03C01A5241430B8B4201D334
:101130004B03C01A5241030B8B4201D30B03C01A5D
:101140005241C30A8B4201D3CB02C01A5241830AD7
:101150008B4201D38B02C01A5241430A8B4201D306
:101160004B02C01A5241030A8B4201D30B02C01A30
:101170005241CDD2C3098B4201D3CB01C01A524197
:1011800083098B4201D38B01C01A524143098B4220
:1011900001D34B01C01A524103098B4201D30B0109
:1011A000C01A5241C3088B4201D3CB00C01A52412E
:1011B00083088B4201D38B00C01A524143088B42F3
:1011C00001D34B00C01A5241411A00D2014652418C
:1011D000104670475DE0CA0F00D04942031000D3AB
:1011E0004042534000229C4603098B422DD3030A00
:1011F0008B4212D3FC22890112BA030A8B420CD310
:10120000890192118B4208D3890192118B4204D338
:1012100089013AD0921100E08909C3098B4201D3B8
:10122000CB01C01A524183098B4201D38B01C01AF2
:10123000524143098B4201D34B01C01A5241030969
:101240008B4201D30B01C01A5241C3088B4201D318
:10125000CB00C01A524183088B4201D38B00C01AC5
:101260005241D9D243088B4201D34B00C01A52419C
:10127000411A00D20146634652415B10104601D329
:101280004042002B00D54942704763465B1000D3B3
:10129000404201B5002000F00BF802BD0029F8D053
:1012A00003B5FFF715FF0EBC4243891A1847C04625
:0412B0007047C0467D
:1012B4000D0A000048617264206661756C74000058
:1012C400202C2020000000002020202320202000AB
:040000030000015C9C
:00000001FF
