:10000000002000100D010000C1000000E109000007
:1000100000000000000000000000000000000000E0
:10002000000000000000000000000000C10000000F
:100030000000000000000000C1000000C903000033
:10004000C1000000C1000000C1000000C1000000AC
:10005000C1000000C1000000C1000000C10000009C
:10006000C1000000C1000000C1000000C10000008C
:10007000C1000000C1000000C1000000C10000007C
:10008000C1000000C1000000C1000000C10000006C
:10009000C1000000B1030000C1000000C100000069
:1000A000C1000000C1000000C1000000C10000004C
:1000B000C1000000C1000000C1000000E103000019
:1000C000FEE7C04601230A4A13600021094A116075
:1000D0002331094A116009490A68802082430A6075
:1000E000074A13600321074A1160074A13607047EB
:1000F00078800440408004400880044038820440F6
:1001000044800440708004407480044010B50E495F
:100110000E4B591A07D000230B4C0D48C25CE25419
:1001200001339942FAD10B490B4B591A07D00023DE
:10013000084C00201A19107001338B42FAD1FFF7D6
:10014000C1FF00F0E1FD10BD000000100000001034
:1001500094100000000000106000001008B5FFF7C8
:10016000D5FF08BD036819430160704703688B43DE
:100170000360704708B50B1C012803D14048111CCF
:1001800098477CE0022803D13E48111C984776E04E
:10019000032803D13C48111C984770E0042803D180
:1001A0003A48111C98476AE0052803D13848111CC9
:1001B000984764E0062803D13648111C98475EE052
:1001C000092803D13448111C984758E00A2803D164
:1001D0003248111C984752E00B2803D13048111CBB
:1001E00098474CE00C2803D12E48111C984746E054
:1001F0000D2803D12C48111C984740E00E2803D14C
:100200002A48111C98473AE00F2803D12848111CAE
:10021000984734E0102803D12648111C98472EE057
:10022000112803D12448111C984728E0122803D133
:100230002248111C984722E0172803D12048111C9E
:1002400098471CE0182803D11E48111C984716E057
:10025000192803D11C48111C984710E01A2803D113
:100260001A48111C98470AE01B2803D11848111C92
:10027000984704E01C2802D11648111C984708BD75
:1002800060400440644004406840044074400440BE
:10029000344004404C400440784004407C400440DA
:1002A000804004409040044094400440A0400440FA
:1002B000A4400440A8400440144004403840044096
:1002C0000C400440104004401C4004402C400440BA
:1002D00030400440504004400823012854D00228F4
:1002E00029D0032829D0042829D0052829D0062878
:1002F00029D0092829D00A2829D00B2829D00C2850
:1003000029D00D2829D00E2829D00F2829D010282F
:1003100029D0112829D0122829D0172829D0182807
:1003200029D0192829D01A2829D01B2829D01C28DF
:1003300029D0043328E0092326E00A2324E00B23F4
:1003400022E0052320E006231EE000231CE0012319
:100350001AE0022318E0032316E0042314E0052327
:1003600012E0062310E007230EE008230CE0092327
:100370000AE0002308E0012306E0022304E003234F
:1003800002E0042300E00723181C704738B5041C62
:100390000D1C05490722FFF7EDFE201C03492A1C0E
:1003A000FFF7E8FE38BDC0466D01000065010000A2
:1003B00008B5044B1B68002B01D0984700E0FEE70E
:1003C00008BDC0460000001008B5044B5B68002B58
:1003D00001D0984700E0FEE708BDC04600000010CD
:1003E000F0B5474680B40024164F0126164B9846B8
:1003F0003B68351CA5402B4208D0A300424608327A
:100400009B58002B02D09847104B1D6001340C2CD8
:10041000EED100240E4F01260B4B98463B68351C4D
:10042000A5402B4208D0A300424638329B58002BEF
:1004300002D09847074B1D6001340A2CEED104BC52
:100440009046F0BD14800050000000101C80005049
:10045000148001501C80015038B5051C012A08D1B8
:100460000468081CFFF738FF012383409C43201CCD
:1004700007E00468081CFFF72FFF01238340181CC6
:100480002043286038BDC04608B5031C0A1C011C67
:100490000939092904D80548191CFFF7DDFF03E0D5
:1004A0000348191CFFF7D8FF08BDC0460080015063
:1004B0000080005010B50468081CFFF70DFF0123F1
:1004C0008340181C2040431E984110BD38B5051CC0
:1004D000012A08D10468081CFFF7FEFE01238340AF
:1004E000181C204307E00468081CFFF7F5FE0123F1
:1004F00083409C43201C286038BDC04608B5031CBF
:100500000A1C011C0939092904D80548191CFFF7E0
:10051000DDFF03E00348191CFFF7D8FF08BDC04604
:10052000FC3F0150FC3F005008B5011C031C093B77
:10053000092B03D80348FFF7BDFF02E00248FFF78D
:10054000B9FF08BDFC3F0150FC3F005038B5041C0A
:100550000D1C124A136812490B431360C31E012B72
:1005600008D90121063B032B05D9011C17394B4241
:10057000594100E00121201CFFF708FF201C094918
:100580001822FFF7F7FD201C07490822FFF7F2FDAC
:10059000201C291CFFF778FF38BDC046808004402E
:1005A000400001006D0100006501000070B5041CF1
:1005B0000E1C151C0121FFF7C9FF231C093B092B49
:1005C00029D9201CFFF788FE01238340274C21688E
:1005D000DA4311402160264C216811402160012E30
:1005E00003D1244A12681A4302E0224909680A40EA
:1005F00020490A60204A136020490A6813430B60AF
:100600001F4A1368802109060B43136080001D4BAD
:100610001818856028E0201CFFF75EFE0123834048
:10062000194C2168DA4311402160184C21681140AF
:100630002160012E03D1164A12681A4302E01449C0
:1006400009680A4012490A60124A136012490A688E
:1006500013430B600A4A13688021C9050B431360DA
:100660008000084B1818856362B670BD0480005086
:10067000088000500C8000501C80005010800050FA
:1006800000E100E0000000100480015008800150EB
:100690000C8001501C8001501080015010B5224A7E
:1006A0001368224C23431360002813D11368802061
:1006B0008000034313601E4800F0DEFB1D4B1860F2
:1006C00080221D4B1A6000221C4B1A6001321C4B09
:1006D0001A6028E0012814D1134A13688020C00052
:1006E00003431360124800F0C7FB164B18608022CA
:1006F000154B1A600022154B1A600132144B1A6018
:1007000011E0094A1368802423431360084800F06D
:10071000B3FB104B1860104B1C6000220F4B1A608B
:1007200001320F4B1A6010BD808004404020010050
:10073000006CDC02204001401440014008400140B0
:1007400004400140208001401480014008800140A5
:100750000480014020C0004014C0004008C0004098
:1007600004C0004010B50C1C012812D10221FFF773
:100770000DFE514A116801230B4313604F4B1B6858
:100780006420001B5843642100F0E6FA4C4B1860CB
:1007900091E0022812D10221FFF7F8FD464A1168C4
:1007A00002230B431360454B1B686420001B584316
:1007B000642100F0D1FA434B18607CE0042812D188
:1007C0000321FFF7E3FD404A116808230B43136040
:1007D0003E4B1B686420001B5843642100F0BCFAA8
:1007E0003B4B186067E00F2812D10221FFF7CEFDC6
:1007F000354A116801230B431360344B1B68642096
:10080000001B5843642100F0A7FA324B186052E0F5
:10081000102812D10221FFF7B9FD2B4A11680223DB
:100820000B431360294B1B686420001B5843642151
:1008300000F092FA284B18603DE00A2812D10321FB
:10084000FFF7A4FD254A116801230B431360244BD5
:100850001B686420001B5843642100F07DFA214B83
:10086000186028E00B2812D10321FFF78FFD1B4AE7
:10087000116802230B431360194B1B686420001B93
:100880005843642100F068FA174B186013E00D28F4
:1008900011D10221FFF77AFD104A116808230B439A
:1008A00013600F4B1B686420001B5843642100F049
:1008B00053FA0E4B186010BD74C0004020C00040B9
:1008C00018C000401CC0004074400140204001405E
:1008D00024400140184001401C4001407480014008
:1008E00020800140188001401C800140248001408C
:1008F000F8B5071C1E4C23681E4A134323600F20C3
:100900000121FFF743FD10200121FFF73FFD236880
:100910008022520113432360174A13680126334390
:100920001360164C236880252B4323601022144B40
:100930001A603901134800F09FFAC3171B0E1818EC
:100940000112114A1160FF221040C01A0F4B1860AB
:100950002368AB4323600E4B1A6816431E6022685F
:100960000323134323600B4B1A6815431D60F8BD26
:100970008080044040000100988004400C800040CA
:1009800028800040006CDC020480004000800040B1
:100990000880004030800040044920220B681A4241
:1009A000FCD0034A1368184310607047148000405D
:1009B0000080004010B5041C0078002805D0FFF727
:1009C000EBFF013420780028F9D110BD08B5FFF7FE
:1009D000F1FF0248FFF7EEFF08BDC046901000008F
:1009E00008B50248FFF7F2FF08BDC0465C100000E2
:1009F00010B5041E092C04DC3034E0B2FFF7CCFF44
:100A00000BE00A2100F038FAFFF7F2FF201C0A2160
:100A100000F018FB081CFFF7EBFF10BD10B5030931
:100A20000F240440181C3730092B01D83033181C10
:100A3000FFF7B2FF201C3730092C00D80738FFF72A
:100A4000ABFF10BD70B572B600290EDD161C041C7C
:100A50004518012E03D12078FFF7E0FF02E020784F
:100A6000FFF79AFF0134AC42F3D162B670BDC046C5
:100A70000522064B1A60064A1368802189030B433E
:100A80001360044B186062B67047C0460480004093
:100A900000E100E000000010024B1B68012018403C
:100AA0007047C04614800040014B1868C0B27047C0
:100AB0000080004070B572B60025074C0122074E39
:100AC00005E023681A42FCD03368435501358D4256
:100AD000F7DB62B670BDC046148000400080004065
:100AE000064A136806490B431360064A136810212F
:100AF0008B431360044A054B1A60704780800440A2
:100B00004020010038820440000B010000C0014079
:100B100010B5041C0449054AFFF72CFB201C0449AE
:100B20000222FFF727FB10BD6D010000FFFF000050
:100B30006501000030B504280AD009280BD00A2826
:100B40000CD00B280DD00C280ED020250F4A0DE01C
:100B500001250E4A0AE002250D4A07E004250D4A48
:100B600004E008250C4A01E010250C4A0C4B1868DB
:100B7000FF24A04318601968294319601368002BEB
:100B8000FCDA10680004800D30BDC04610C0014082
:100B900014C0014018C001401CC0014020C00140E9
:100BA00000C001400138FDD17047C04608B5430080
:100BB00018188000FFF7F6FF08BDC04608B5FA23F5
:100BC0009B005843FFF7F2FF08BDC04608B5FA2363
:100BD0009B005843FFF7F2FF08BDC04610B50C1C40
:100BE0000021FFF7B3FC201C0121FFF7AFFC10BD73
:100BF00070B5051C0C1C0021FFF780FC0520FFF7D9
:100C0000D5FF281C0121FFF779FC0A20FFF7CEFF52
:100C1000281C0021FFF772FC1E490B6805221343B4
:100C20000B60E021FF311C4B19601C4B1A601C4EFD
:100C30001D1C04E0201CFFF777FC012802D02B6864
:100C4000052BF7D8201CFFF76FFC012802D0013ECE
:100C5000002EF4D10522114B1A6000261D1C03E062
:100C60002B68052BFCD80136201CFFF75DFC012802
:100C7000F6D0084A136805218B431360002E06DD69
:100C8000B00080194000343100F0F6F801E0012096
:100C9000404270BD10E000E014E000E018E000E029
:100CA0007017000070B5061C0C1C00F0E5F8051C60
:100CB000301C211C00F0C6F9E30F1C196410A1427E
:100CC00000DD0135281C70BD10B50C1C012032213F
:100CD000FFF7E4FC201C0321FFF744FD10BDC046D4
:100CE00010B5041C3231081C1421FFF7DBFF011C76
:100CF000201CFFF737FD10BD08B50248FFF766FE60
:100D000008BDC0466810000070B59620C001FFF70E
:100D1000EFFD12201121FFF761FF1C2001210B4A7A
:100D2000FFF744FC0A4E0B4D12201121FFF760FF24
:100D3000041C301CFFF73EFE201CFFF759FE281C48
:100D4000FFF738FE6420FFF739FFEDE7F90C0000EC
:100D5000801000008C100000002243088B4274D3E6
:100D600003098B425FD3030A8B4244D3030B8B42AC
:100D700028D3030C8B420DD3FF22090212BA030CB5
:100D80008B4202D31212090265D0030B8B4219D396
:100D900000E0090AC30B8B4201D3CB03C01A5241B6
:100DA000830B8B4201D38B03C01A5241430B8B42FE
:100DB00001D34B03C01A5241030B8B4201D30B03E7
:100DC000C01A5241C30A8B4201D3CB02C01A52410E
:100DD000830A8B4201D38B02C01A5241430A8B42D1
:100DE00001D34B02C01A5241030A8B4201D30B02BA
:100DF000C01A5241CDD2C3098B4201D3CB01C01AD4
:100E0000524183098B4201D38B01C01A52414309DD
:100E10008B4201D34B01C01A524103098B4201D3CB
:100E20000B01C01A5241C3088B4201D3CB00C01A38
:100E3000524183088B4201D38B00C01A52414308B0
:100E40008B4201D34B00C01A5241411A00D20146D5
:100E5000524110467047FFE701B5002000F0FCF852
:100E600002BDC0460029F7D003B5FFF775FF0EBCE1
:100E70004243891A1847C04603460B437FD40022D9
:100E800043088B4274D303098B425FD3030A8B421E
:100E900044D3030B8B4228D3030C8B420DD3FF2288
:100EA000090212BA030C8B4202D31212090265D056
:100EB000030B8B4219D300E0090AC30B8B4201D309
:100EC000CB03C01A5241830B8B4201D38B03C01A50
:100ED0005241430B8B4201D34B03C01A5241030BC7
:100EE0008B4201D30B03C01A5241C30A8B4201D378
:100EF000CB02C01A5241830A8B4201D38B02C01A23
:100F00005241430A8B4201D34B02C01A5241030A99
:100F10008B4201D30B02C01A5241CDD2C3098B427E
:100F200001D3CB01C01A524183098B4201D38B01FB
:100F3000C01A524143098B4201D34B01C01A52419E
:100F400003098B4201D30B01C01A5241C3088B42E3
:100F500001D3CB00C01A524183088B4201D38B00CE
:100F6000C01A524143088B4201D34B00C01A524170
:100F7000411A00D201465241104670475DE0CA0F47
:100F800000D04942031000D34042534000229C4607
:100F900003098B422DD3030A8B4212D3FC22890111
:100FA00012BA030A8B420CD3890192118B4208D3E7
:100FB000890192118B4204D389013AD0921100E049
:100FC0008909C3098B4201D3CB01C01A524183095D
:100FD0008B4201D38B01C01A524143098B4201D38A
:100FE0004B01C01A524103098B4201D30B01C01AB5
:100FF0005241C3088B4201D3CB00C01A524183082F
:101000008B4201D38B00C01A5241D9D243088B4284
:1010100001D34B00C01A5241411A00D20146634627
:1010200052415B10104601D34042002B00D549428B
:10103000704763465B1000D3404201B5002000F0CA
:101040000BF802BD0029F8D003B5FFF715FF0EBC61
:0C1050004243891A1847C0467047C0464A
:10105C0048617264206661756C7400004F4F505388
:10106C0021204920686974207468652077616C6C54
:10107C000000000044697374616E63653A200000DF
:08108C0020636D200D0A000035
:040000030000015C9C
:00000001FF
