:10000000002000100D010000C1000000010A0000E6
:1000100000000000000000000000000000000000E0
:10002000000000000000000000000000C10000000F
:100030000000000000000000C1000000C903000033
:10004000C1000000C1000000C1000000C1000000AC
:10005000C1000000C1000000C1000000C10000009C
:10006000C1000000C1000000C1000000C10000008C
:10007000C1000000C1000000C1000000C10000007C
:10008000C1000000C1000000C1000000C10000006C
:100090003D0A0000B1030000C1000000C1000000E3
:1000A000C1000000C1000000C1000000C10000004C
:1000B000C1000000C1000000C1000000E103000019
:1000C000FEE7C04601230A4A13600021094A116075
:1000D0002331094A116009490A68802082430A6075
:1000E000074A13600321074A1160074A13607047EB
:1000F00078800440408004400880044038820440F6
:1001000044800440708004407480044010B50E495F
:100110000E4B591A07D000230B4C0D48C25CE25419
:1001200001339942FAD10B490B4B591A07D00023DE
:10013000084C00201A19107001338B42FAD1FFF7D6
:10014000C1FF01F093F810BD000000101C0000106A
:10015000981C00001C0000108000001008B5FFF77C
:10016000D5FF08BD036819430160704703688B43DE
:100170000360704708B50B1C012803D14048111CCF
:1001800098477CE0022803D13E48111C984776E04E
:10019000032803D13C48111C984770E0042803D180
:1001A0003A48111C98476AE0052803D13848111CC9
:1001B000984764E0062803D13648111C98475EE052
:1001C000092803D13448111C984758E00A2803D164
:1001D0003248111C984752E00B2803D13048111CBB
:1001E00098474CE00C2803D12E48111C984746E054
:1001F0000D2803D12C48111C984740E00E2803D14C
:100200002A48111C98473AE00F2803D12848111CAE
:10021000984734E0102803D12648111C98472EE057
:10022000112803D12448111C984728E0122803D133
:100230002248111C984722E0172803D12048111C9E
:1002400098471CE0182803D11E48111C984716E057
:10025000192803D11C48111C984710E01A2803D113
:100260001A48111C98470AE01B2803D11848111C92
:10027000984704E01C2802D11648111C984708BD75
:1002800060400440644004406840044074400440BE
:10029000344004404C400440784004407C400440DA
:1002A000804004409040044094400440A0400440FA
:1002B000A4400440A8400440144004403840044096
:1002C0000C400440104004401C4004402C400440BA
:1002D00030400440504004400823012854D00228F4
:1002E00029D0032829D0042829D0052829D0062878
:1002F00029D0092829D00A2829D00B2829D00C2850
:1003000029D00D2829D00E2829D00F2829D010282F
:1003100029D0112829D0122829D0172829D0182807
:1003200029D0192829D01A2829D01B2829D01C28DF
:1003300029D0043328E0092326E00A2324E00B23F4
:1003400022E0052320E006231EE000231CE0012319
:100350001AE0022318E0032316E0042314E0052327
:1003600012E0062310E007230EE008230CE0092327
:100370000AE0002308E0012306E0022304E003234F
:1003800002E0042300E00723181C704738B5041C62
:100390000D1C05490722FFF7EDFE201C03492A1C0E
:1003A000FFF7E8FE38BDC0466D01000065010000A2
:1003B00008B5044B1B68002B01D0984700E0FEE70E
:1003C00008BDC0461C00001008B5044B5B68002B3C
:1003D00001D0984700E0FEE708BDC0461C000010B1
:1003E000F0B5474680B40024164F0126164B9846B8
:1003F0003B68351CA5402B4208D0A300424608327A
:100400009B58002B02D09847104B1D6001340C2CD8
:10041000EED100240E4F01260B4B98463B68351C4D
:10042000A5402B4208D0A300424638329B58002BEF
:1004300002D09847074B1D6001340A2CEED104BC52
:100440009046F0BD148000501C0000101C8000502D
:10045000148001501C80015038B5051C012A08D1B8
:100460000468081CFFF738FF012383409C43201CCD
:1004700007E00468081CFFF72FFF01238340181CC6
:100480002043286038BDC04608B5031C0A1C011C67
:100490000939092904D80548191CFFF7DDFF03E0D5
:1004A0000348191CFFF7D8FF08BDC0460080015063
:1004B0000080005010B50468081CFFF70DFF0123F1
:1004C0008340181C2040431E984110BD38B5051CC0
:1004D000012A08D10468081CFFF7FEFE01238340AF
:1004E000181C204307E00468081CFFF7F5FE0123F1
:1004F00083409C43201C286038BDC04608B5031CBF
:100500000A1C011C0939092904D80548191CFFF7E0
:10051000DDFF03E00348191CFFF7D8FF08BDC04604
:10052000FC3F0150FC3F005008B5011C031C093B77
:10053000092B03D80348FFF7BDFF02E00248FFF78D
:10054000B9FF08BDFC3F0150FC3F005038B5041C0A
:100550000D1C1A4A13681A490B431360C31E012B62
:1005600008D90121063B032B05D9011C17394B4241
:10057000594100E00121201CFFF708FF052C01D0A4
:100580001B2C0BD1201C0F49C0229200FFF7F2FD5B
:10059000201C0D4980225200FFF7ECFD201C094968
:1005A0001822FFF7E7FD201C07490822FFF7E2FDAC
:1005B000201C291CFFF768FF38BDC046808004401E
:1005C000400001006D0100006501000070B5041CD1
:1005D0000E1C151C0121FFF7B9FF231C093B092B39
:1005E00029D9201CFFF778FE01238340274C21687E
:1005F000DA4311402160264C216811402160012E10
:1006000003D1244A12681A4302E0224909680A40C9
:1006100020490A60204A136020490A6813430B608E
:100620001F4A1368802109060B43136080001D4B8D
:100630001818856028E0201CFFF74EFE0123834038
:10064000194C2168DA4311402160184C216811408F
:100650002160012E03D1164A12681A4302E01449A0
:1006600009680A4012490A60124A136012490A686E
:1006700013430B600A4A13688021C9050B431360BA
:100680008000084B1818856362B670BD0480005066
:10069000088000500C8000501C80005010800050DA
:1006A00000E100E01C0000100480015008800150AF
:1006B0000C8001501C8001501080015010B5224A5E
:1006C0001368224C23431360002813D11368802041
:1006D0008000034313601E4800F06CFE1D4B186041
:1006E00080221D4B1A6000221C4B1A6001321C4BE9
:1006F0001A6028E0012814D1134A13688020C00032
:1007000003431360124800F055FE164B1860802218
:10071000154B1A600022154B1A600132144B1A60F7
:1007200011E0094A1368802423431360084800F04D
:1007300041FE104B1860104B1C6000220F4B1A60DA
:1007400001320F4B1A6010BD808004404020010030
:10075000006CDC0220400140144001400840014090
:100760000440014020800140148001400880014085
:100770000480014020C0004014C0004008C0004078
:1007800004C0004010B50C1C012812D10221FFF753
:10079000FDFD514A116801230B4313604F4B1B6849
:1007A0006420001B5843642100F074FD4C4B18601A
:1007B00091E0022812D10221FFF7E8FD464A1168B4
:1007C00002230B431360454B1B686420001B5843F6
:1007D000642100F05FFD434B18607CE0042812D1D7
:1007E0000321FFF7D3FD404A116808230B43136030
:1007F0003E4B1B686420001B5843642100F04AFDF7
:100800003B4B186067E00F2812D10221FFF7BEFDB5
:10081000354A116801230B431360344B1B68642075
:10082000001B5843642100F035FD324B186052E044
:10083000102812D10221FFF7A9FD2B4A11680223CB
:100840000B431360294B1B686420001B5843642131
:1008500000F020FD284B18603DE00A2812D103214A
:10086000FFF794FD254A116801230B431360244BC5
:100870001B686420001B5843642100F00BFD214BD2
:10088000186028E00B2812D10321FFF77FFD1B4AD7
:10089000116802230B431360194B1B686420001B73
:1008A0005843642100F0F6FC174B186013E00D2844
:1008B00011D10221FFF76AFD104A116808230B438A
:1008C00013600F4B1B686420001B5843642100F029
:1008D000E1FC0E4B186010BD74C0004020C0004009
:1008E00018C000401CC0004074400140204001403E
:1008F00024400140184001401C40014074800140E8
:1009000020800140188001401C800140248001406B
:10091000F8B5071C1E4C23681E4A134323600F20A2
:100920000121FFF733FD10200121FFF72FFD236880
:100930008022520113432360174A13680126334370
:100940001360164C236880252B4323601022144B20
:100950001A603901134800F02DFDC3171B0E18183B
:100960000112114A1160FF221040C01A0F4B18608B
:100970002368AB4323600E4B1A6816431E6022683F
:100980000323134323600B4B1A6815431D60F8BD06
:100990008080044040000100988004400C800040AA
:1009A00028800040006CDC02048000400080004091
:1009B0000880004030800040044920220B681A4221
:1009C000FCD0034A1368184310607047148000403D
:1009D0000080004010B5041C0078002805D0FFF707
:1009E000EBFF013420780028F9D110BD08B5FFF7DE
:1009F000F1FF0248FFF7EEFF08BDC046EC1B000008
:100A000008B50248FFF7F2FF08BDC046F01B000022
:100A100010B5041E092C04DC3034E0B2FFF7CCFF23
:100A20000BE00A2100F0C6FCFFF7F2FF201C0A21B0
:100A300000F0A6FD081CFFF7EBFF10BD10B51A4B28
:100A40001B6E002B2DD0194A13680224A343136098
:100A5000154B1B6E9847164B1B681C4207D0154C54
:100A600000201349022220600B681A42FBD1104B70
:100A70001B685B0706D50F480D49042203680B6805
:100A80001A42FBD10C4A116803230B431360074A37
:100A9000116802230B431360084B1868FFF7B8FF77
:100AA00000E0FEE710BDC0461C000010140004402A
:100AB0000C000440080004402000044018000440DA
:100AC00010B503090F240440181C3730092B01D836
:100AD0003033181CFFF770FF201C3730092C00D86A
:100AE0000738FFF769FF10BD70B572B600290EDD3B
:100AF000161C041C4518012E03D12078FFF7E0FFD7
:100B000002E02078FFF758FF0134AC42F3D162B61F
:100B100070BDC0460522064B1A60064A1368802144
:100B200089030B431360044B186062B67047C046DC
:100B30000480004000E100E01C000010024B1B6834
:100B4000012018407047C04614800040014B1868CF
:100B5000C0B270470080004070B572B60025074CE7
:100B60000122074E05E023681A42FCD03368435542
:100B700001358D42F7DB62B670BDC046148000407F
:100B800000800040064A136806490B431360064A7A
:100B9000136810218B431360044A054B1A60704799
:100BA000808004404020010038820440000B010096
:100BB00000C0014010B5041C0449054AFFF7DAFAE9
:100BC000201C04490222FFF7D5FA10BD6D01000078
:100BD000FFFF00006501000030B504280AD0092895
:100BE0000BD00A280CD00B280DD00C280ED02025B5
:100BF0000F4A0DE001250E4A0AE002250D4A07E0E2
:100C000004250D4A04E008250C4A01E010250C4A91
:100C10000C4B1868FF24A043186019682943196019
:100C20001368002BFCDA10680004800D30BDC0464C
:100C300010C0014014C0014018C001401CC0014058
:100C400020C0014000C001400138FDD17047C046BE
:100C500008B5430018188000FFF7F6FF08BDC0462E
:100C600008B5FA239B005843FFF7F2FF08BDC046C2
:100C700008B5FA239B005843FFF7F2FF08BDC046B2
:100C800010B50C1C0021FFF761FC201C0121FFF7AF
:100C90005DFC10BD70B5051C0C1C0021FFF72EFC7F
:100CA0000520FFF7D5FF281C0121FFF727FC0A20AC
:100CB000FFF7CEFF281C0021FFF720FC1E490B6820
:100CC000052213430B60E021FF311C4B19601C4BC4
:100CD0001A601C4E1D1C04E0201CFFF725FC012897
:100CE00002D02B68052BF7D8201CFFF71DFC01282C
:100CF00002D0013E002EF4D10522114B1A600026CD
:100D00001D1C03E02B68052BFCD80136201CFFF7C7
:100D10000BFC0128F6D0084A136805218B431360A9
:100D2000002E06DDB00080194000343100F042FB97
:100D300001E00120404270BD10E000E014E000E05E
:100D400018E000E07017000070B5061C0C1C00F0E5
:100D500031FB051C301C211C00F012FCE30F1C1998
:100D60006410A14200DD0135281C70BD10B50C1CBB
:100D70003221FFF7A3FC201C0321FFF703FD10BD68
:100D800010B5041C3231081C1421FFF7DDFF011CD3
:100D9000201CFFF7F7FC10BD10B5041C254B19688B
:100DA00001229143196019681143196022490B68A7
:100DB000224803430B60224B1A6001200121FFF7F8
:100DC000E5FA02200121FFF7E1FA02221D4B1A6029
:100DD00006200221FFF7DAFA002C10D11920012198
:100DE000FFF7D4FA184B196802229143196018686A
:100DF00004210143196019680A431A600CE01920A4
:100E00000021FFF7A3FB19200121FFF777FB0E4A12
:100E1000136804218B43136007220C4B1A60053AB8
:100E20000B4B1A6008230B4A1168013BDBB2002B05
:100E3000FAD110BD048004408080044040080100C5
:100E400094800440B040044004000440000004408A
:100E5000100004400800044070B5002911DD41185D
:100E6000084A0225084E142413681D42FCD003785A
:100E70003360013013682340042BFBD13368884270
:100E8000F2D170BD0C0004400800044030B50029C8
:100E90000BDD4118054C0422054D23681A42FCD095
:100EA0002B68037001308842F7D130BD0C0004403C
:100EB0000800044070B500290EDD4118074DFF26DB
:100EC000074C14222E6023681340042BFBD12B689F
:100ED000037001308842F5D170BDC046080004405F
:100EE0000C000440074A116802230B431360064AB2
:100EF0001368802149030B431360044B186662B6E4
:100F00007047C0461400044000E100E01C000010DF
:100F100000B585B001900291039201206421FFF792
:100F2000CDFB01980021FFF711FB029B0093181CD9
:100F30000021FFF70BFB03980021FFF707FB05B02B
:100F400000BDC04610B584B0019003921C1C081C63
:100F50000121FFF7D3FA03980021FFF7CFFA019898
:100F6000211CFFF70FFC04B010BDC04600B585B0D2
:100F70000021FFF707FC05B000BDC04610B584B0E6
:100F8000019003921C1C081C0021FFF7B7FA03987C
:100F90000121FFF7B3FA0198211CFFF7F3FB04B01E
:100FA00010BDC046F0B5474680B4002814DC21E0EF
:100FB0000920FFF711FEC30F424682427B41621CAB
:100FC00003D01C1B621E94412D191C1C1920FFF715
:100FD00047FEB542ECDB0DE0061C0920FFF7FCFDE7
:100FE000C40F0023FA22520082425C410025904641
:100FF0000027EBE7002004BC9046F0BD10B5054C7F
:1010000020680021FFF7BEFBE0680021FFF7BAFB74
:1010100010BDC0460000001070B5051C0E1C0E4C23
:1010200000F08AFD0D4A0E4B00F0B6FA00F04EFDBE
:10103000031C20686168A268FFF784FFE0682169EB
:1010400062692B1CFFF79AFF002E04DD301CFFF7AE
:1010500007FEFFF7D3FF70BD000000109A99999921
:101060009999E93F70B5051C0E1C0F4CE068216989
:1010700062692B1CFFF766FF281C00F05DFD0B4A20
:101080000B4B00F089FA00F021FD031C2068616819
:10109000A268FFF773FF002E04DD301CFFF7E0FDB0
:1010A000FFF7ACFF70BDC046000000109A999999F7
:1010B0009999E93F70B5051C0E1C0F4CE068216939
:1010C00062692B1CFFF73EFF281C00F035FD0B4A20
:1010D0000B4B00F061FA00F0F9FC031C206861681A
:1010E000A268FFF72FFF002E04DD301CFFF7B8FDCC
:1010F000FFF784FF70BDC046000000109A999999CF
:101100009999E93F70B5051C0E1C0F4CE0682169E8
:1011100062692B1CFFF732FF281C00F00DFD0B4A03
:101120000B4B00F039FA00F0D1FC031C2068616819
:10113000A268FFF723FF002E04DD301CFFF790FDAF
:10114000FFF75CFF70BDC046000000109A999999A6
:101150009999E93F10B50C1C01214942FFF7AAFFFC
:10116000201CFFF71FFFFFF749FF10BD10B50C1C37
:1011700001214942FFF7C6FF201CFFF713FFFFF7CD
:101180003DFF10BD10B50F4CE06821696269FFF7A3
:10119000BFFE20686168A268FFF7BAFEFFF7F2FCA5
:1011A0000C20FFF707FD0420FFF704FD0920FFF7DF
:1011B00001FD12201121FFF763FD41200121FFF7FE
:1011C000C9FF10BD0000001010B5041C1220112131
:1011D000FFF760FD20600C20FFF7FEFC606004203C
:1011E000FFF7FAFCA06010BD08B5FFF707FF08BDC8
:1011F00008B5FFF7A3FC002833D0FFF7A7FC64383D
:10120000C3B2162B28D89800164B1B589F46164B76
:10121000186801214942FFF7FFFE1FE0124B1868D2
:1012200001214942FFF71EFF18E00F4B1868FA2111
:101230004900FFF73FFF11E00B4B1868FA21490006
:10124000FFF760FF0AE0FFF7D9FE07E0064B1868DA
:101250000421FFF77FFF01E0FFF7D0FE6420FFF7D6
:10126000FFFC08BDFC1B00001800001008B5FFF7CC
:1012700089FF9620C001FFF74BFB0448FFF74AFCAB
:101280001C200121024AFFF7A1F9FEE7F11100003D
:10129000E9110000002243088B4274D303098B42FA
:1012A0005FD3030A8B4244D3030B8B4228D3030C36
:1012B0008B420DD3FF22090212BA030C8B4202D3D8
:1012C0001212090265D0030B8B4219D300E0090A00
:1012D000C30B8B4201D3CB03C01A5241830B8B4209
:1012E00001D38B03C01A5241430B8B4201D34B03F2
:1012F000C01A5241030B8B4201D30B03C01A524157
:10130000C30A8B4201D3CB02C01A5241830A8B42DB
:1013100001D38B02C01A5241430A8B4201D34B02C4
:10132000C01A5241030A8B4201D30B02C01A524128
:10133000CDD2C3098B4201D3CB01C01A52418309DC
:101340008B4201D38B01C01A524143098B4201D316
:101350004B01C01A524103098B4201D30B01C01A41
:101360005241C3088B4201D3CB00C01A52418308BB
:101370008B4201D38B00C01A524143088B4201D3E8
:101380004B00C01A5241411A00D201465241104648
:101390007047FFE701B5002000F0FCF802BDC04631
:1013A0000029F7D003B5FFF775FF0EBC4243891A39
:1013B0001847C04603460B437FD4002243088B42A4
:1013C00074D303098B425FD3030A8B4244D3030BCC
:1013D0008B4228D3030C8B420DD3FF22090212BA91
:1013E000030C8B4202D31212090265D0030B8B420D
:1013F00019D300E0090AC30B8B4201D3CB03C01AF7
:101400005241830B8B4201D38B03C01A5241430BD1
:101410008B4201D34B03C01A5241030B8B4201D3C1
:101420000B03C01A5241C30A8B4201D3CB02C01A2C
:101430005241830A8B4201D38B02C01A5241430AA4
:101440008B4201D34B02C01A5241030A8B4201D393
:101450000B02C01A5241CDD2C3098B4201D3CB013A
:10146000C01A524183098B4201D38B01C01A5241E9
:1014700043098B4201D34B01C01A524103098B42ED
:1014800001D30B01C01A5241C3088B4201D3CB00D8
:10149000C01A524183088B4201D38B00C01A5241BB
:1014A00043088B4201D34B00C01A5241411A00D26B
:1014B00001465241104670475DE0CA0F00D04942D4
:1014C000031000D34042534000229C4603098B4244
:1014D0002DD3030A8B4212D3FC22890112BA030ACC
:1014E0008B420CD3890192118B4208D3890192114E
:1014F0008B4204D389013AD0921100E08909C309D3
:101500008B4201D3CB01C01A524183098B4201D3D4
:101510008B01C01A524143098B4201D34B01C01ABF
:10152000524103098B4201D30B01C01A5241C30837
:101530008B4201D3CB00C01A524183088B4201D3A6
:101540008B00C01A5241D9D243088B4201D34B00C1
:10155000C01A5241411A00D20146634652415B1003
:10156000104601D34042002B00D5494270476346E4
:101570005B1000D3404201B5002000F00BF802BD23
:101580000029F8D003B5FFF715FF0EBC4243891AB6
:101590001847C0467047C046F0B55F4656464D46B0
:1015A0004446F0B4051C061C080387B099464F005A
:1015B000030BCC0F92469B467F0D019467D06C4B7A
:1015C0009F4236D080205B4640031843C0006B0F1B
:1015D0001843684B83469C4600239846EE006744B8
:1015E00000934B4649461D03C90F5B0052462D0B25
:1015F0005B0D894600D16EE05D498B4264D080204E
:101600005C4940038C4600210543ED00500F054323
:10161000D20063444846FF187B1C9A46009B6040FA
:1016200002900B430F2B00D9ACE053489B00C358EA
:101630009F465B461D4300D082E0082300930023B1
:101640009B46023300269846CBE7029B0193434614
:10165000022B59D1012400250026019B1C40444B3C
:1016600000212D030A0D12052D0B1543434A1B05BE
:1016700015401D436D00E4076D082543301C291CEF
:1016800007B03CBC90469946A246AB46F0BD2B4302
:101690004ED05B46002B00D185E1584600F088FA19
:1016A000021C2823291C9B1A161C5846D940083EA8
:1016B000B0400B1CB54003439B462E1C0023304F0B
:1016C0000093BF1A98468CE7514629432ED1002536
:1016D000002202219EE75146294323D0002D00D14C
:1016E00054E1281C00F064FA031C28215046C91A52
:1016F0001A1CC8405146083A914095400A1C0543BF
:101700001F480021C31A85E7032B00D1C2E1012B3A
:1017100000D06DE14446019B00251C40E4B200234B
:1017200000269DE700250022012173E7032171E7D0
:101730000423009300239B4601330026984650E77C
:101740000C230093093B98464BE7802500242D038A
:101750000026074B84E74B46AB46161C0193884690
:1017600075E7029BAB46161C019388466FE7C0469F
:10177000FF07000001FCFFFF581C0000FFFF0F8067
:101780000DFCFFFF330C3604360C9C46331C140C46
:101790001204120C534398466346534399466346DA
:1017A00063430193331C41466343090C4B445B186C
:1017B000994505D98020400281460199494401910B
:1017C000190C039141460904090C1B045B1804938E
:1017D0002B0C9846331C2D04290C4B436046009378
:1017E0004346654658435E43009B4D431B0C994658
:1017F000AE194E448446B54203D980235B02994614
:10180000CC44350C2B1C0398634484460593009B01
:1018100036041B041B0CF3189C4460460390584686
:101820000504060C280C84465043351C814660464E
:10183000654344434846000C8346724314195C4494
:10184000A24203D98022520293465D44220CAD1875
:101850004A461204120C24044046A41862464A4325
:101860007143464360460096464670438046100CDE
:1018700084468844E044414505D9802149028C468C
:10188000009961440091019803998446614499420A
:101890009B415B4299460598434684461204120CCC
:1018A0001B049B1863449C46AB4683429B414046C5
:1018B0000A19CC44A2428941E344CC45B6415C4676
:1018C000000C8046494276425B4264183343984498
:1018D0008C428941AB459B4149425B4219430D1CF7
:1018E000009B4544EE187602E50D2E43B346049B5B
:1018F00056021E43731E9E415B46D20D3243660262
:101900001643DB010AD50123334076081E435B46AC
:10191000DB071E435B465B089B465746634BFB1841
:10192000002B5ADD720709D00F223240042A05D05D
:10193000321DB242B6417642B344161C5A46D20119
:1019400006D55A465A4B1A4080239346DB00FB18B3
:10195000584A934234DD0124029B00251C40002696
:10196000554B7DE680205B460003034208D00542CC
:1019700006D105432D032D0B4C46161C4E4B6FE62E
:101980005D4605432D032D0B4B4B69E6504600F099
:101990000FF9031C2033272B00DCA6E65546083838
:1019A00085400022ACE6281C00F002F9021C20321F
:1019B000272A00DC75E6083885400026AB467DE620
:1019C0005A46F608520716435A4601245502029A0F
:1019D0005B052D0B5B0D144042E6384DED1B382D99
:1019E0000ADD0124029B00251C400026002337E667
:1019F000019B5746029391E71F2D25DC304B321C8B
:101A00009C466744BE405B46BB40371CEA407E1E96
:101A1000B74113433B431E1C5B46EB401D1C730741
:101A200009D00F233340042B05D0331DB342B641F8
:101A30007642AD191E1C2B0220D50124029B0025E5
:101A40001C40002601230BE65A461E4BDB1BDA40E6
:101A5000131C202D1CD01C4A94465A466744BA4099
:101A6000171C3E43721E96411E4307230025334038
:101A700007D00F2300253340042BD6D16B076D020E
:101A80002D0B0124F6081E43029B1C400023E7E5B2
:101A90000027E6E780255B4601242D031D43019BBB
:101AA0002D0323401C1C2D0B034BD9E5FF03000025
:101AB000FFFFFFFEFE070000FF07000002FCFFFF24
:101AC0001E040000E2FBFFFF3E0400000B0330B5E4
:101AD000134C1A0B4B00051C5B0DC90F0020A342D1
:101AE00010DD104883420EDC80200F4C400302437F
:101AF000E41A1F2C0ADD0D48C31ADA40131C4842B1
:101B00004340581830BD0A4BC818FBE7281CE0407A
:101B1000084CA44663449A40131C0343EFE7C046B5
:101B2000FE0300001D040000330400001304000045
:101B3000FFFFFF7FEDFBFFFF38B5041E16D0C50F7A
:101B400000D04442201C00F033F8174B1B1A0A281F
:101B500021DC021C211C153291400A1C0B21081AA1
:101B6000C4405B052403240B5B0D03E00025002328
:101B7000002400220021101C24030A0D1205240B4E
:101B800014430A4A1B0514401C436400ED07640813
:101B90002C43211C38BD0B3884405B052403240BE7
:101BA0005B0D0022E6E7C0461E040000FFFF0F8029
:101BB0001C2101231B04984201D3000C10391B0A7D
:101BC000984201D3000A08391B09984201D3000941
:101BD000043902A2105C40187047C0460403020298
:0C1BE000010101010000000000000000F5
:101BEC000D0A000048617264206661756C74000017
:101BFC001C1200005812000058120000581200006D
:101C0C005812000058120000581200005812000020
:101C1C005812000058120000581200005812000010
:101C2C00581200000E12000058120000381200006A
:101C3C005812000058120000581200004C120000FC
:101C4C0046120000581200002A12000084170000EF
:101C5C006217000062170000561700004A160000B9
:101C6C004A1600004A170000561700004A160000DA
:101C7C004A1700004A160000561700004E160000C6
:0C1C8C004E1600004E1600006419000007
:101C98000B0000001A000000030000000D00000007
:0C1CA8000A0000000E00000041000000D7
:040000030000015C9C
:00000001FF
