:100000000020001005010000C1000000C100000038
:1000100000000000000000000000000000000000E0
:10002000000000000000000000000000C10000000F
:100030000000000000000000C1000000C10000003E
:10004000C1000000C1000000C1000000C1000000AC
:10005000C1000000C1000000C1000000C10000009C
:10006000C1000000C1000000C1000000C10000008C
:10007000C1000000C1000000C1000000C10000007C
:10008000C1000000C1000000C1000000C10000006C
:10009000C1000000C1000000C1000000C10000005C
:1000A000C1000000C1000000C1000000C10000004C
:1000B000C1000000C1000000C1000000C10000003C
:1000C000FEE7C0460022094B1A602332084B1A6033
:1000D000084A136880218B4313600123064A13608A
:1000E0007D39064A1160064A13607047408004401B
:1000F00008800440388204404480044070800440FA
:100100007480044010B50E490E4B591A07D00023D5
:100110000B4C0D48C25CE25401339942FAD10B49B1
:100120000B4B591A07D00023084C00201A191070E5
:1001300001338B42FAD1FFF7C5FF00F0FBFA10BD87
:100140000000001000000010800A000000000010F5
:100150000000001008B5FFF7D5FF08BD036819437C
:100160000160704703688B430360704708B50B1C40
:10017000012803D14048111C98477CE0022803D194
:100180003E48111C984776E0032803D13C48111CD7
:10019000984770E0042803D13A48111C98476AE058
:1001A000052803D13848111C984764E0062803D17C
:1001B0003648111C98475EE0092803D13448111CC9
:1001C000984758E00A2803D13248111C984752E05A
:1001D0000B2803D13048111C98474CE00C2803D160
:1001E0002E48111C984746E00D2803D12C48111CBD
:1001F000984740E00E2803D12A48111C98473AE05E
:100200000F2803D12848111C984734E0102803D147
:100210002648111C98472EE0112803D12448111CB0
:10022000984728E0122803D12248111C984722E061
:10023000172803D12048111C98471CE0182803D127
:100240001E48111C984716E0192803D11C48111CA0
:10025000984710E01A2803D11A48111C98470AE061
:100260001B2803D11848111C984704E01C2802D110
:100270001648111C984708BD604004406440044083
:100280006840044074400440344004404C40044002
:10029000784004407C40044080400440904004404A
:1002A00094400440A0400440A4400440A8400440BE
:1002B00014400440384004400C40044010400440C6
:1002C0001C4004402C400440304004405040044056
:1002D0000823012854D0022829D0032829D0042833
:1002E00029D0052829D0062829D0092829D00A286C
:1002F00029D00B2829D00C2829D00D2829D00E2848
:1003000029D00F2829D0102829D0112829D0122827
:1003100029D0172829D0182829D0192829D01A28F7
:1003200029D01B2829D01C2829D0043328E00923F0
:1003300026E00A2324E00B2322E0052320E0062305
:100340001EE000231CE001231AE0022318E003232F
:1003500016E0042314E0052312E0062310E007232F
:100360000EE008230CE009230AE0002308E0012343
:1003700006E0022304E0032302E0042300E0072355
:10038000181C704738B5041C0D1C05490722FFF7DF
:10039000EDFE201C03492A1CFFF7E8FE38BDC046CD
:1003A000650100005D01000038B5051C012A08D177
:1003B0000468081CFFF78CFF012383409C43201C2A
:1003C00007E00468081CFFF783FF01238340181C23
:1003D0002043286038BDC04608B5031C0A1C011C18
:1003E0000939092904D80548191CFFF7DDFF03E086
:1003F0000348191CFFF7D8FF08BDC0460080015014
:100400000080005010B50468081CFFF761FF01234D
:100410008340181C2040431E984110BD38B5051C70
:10042000012A08D10468081CFFF752FF012383400A
:10043000181C204307E00468081CFFF749FF01234C
:1004400083409C43201C286038BDC04608B5031C6F
:100450000A1C011C0939092904D80548191CFFF791
:10046000DDFF03E00348191CFFF7D8FF08BDC046B5
:10047000FC3F0150FC3F005008B5011C031C093B28
:10048000092B03D80348FFF7BDFF02E00248FFF73E
:10049000B9FF08BDFC3F0150FC3F005038B5041CBB
:1004A0000D1C0D4A13680D490B431360C31E012B2D
:1004B00008D90121063B032B05D9011C17394B42F2
:1004C000594100E00121201CFFF75CFF201C291C82
:1004D000FFF782FF38BDC046808004404020010005
:1004E00010B5224A1368224C23431360002813D10D
:1004F000136880208000034313601E4800F0CEF98B
:100500001D4B186080221D4B1A6000221C4B1A6084
:1005100001321C4B1A6028E0012814D1134A1368D9
:100520008020C00003431360124800F0B7F9164B57
:1005300018608022154B1A600022154B1A60013298
:10054000144B1A6011E0094A136880242343136096
:10055000084800F0A3F9104B1860104B1C600022F3
:100560000F4B1A6001320F4B1A6010BD808004409F
:1005700040200100006CDC0220400140144001409A
:1005800008400140044001402080014014800140A7
:10059000088001400480014020C0004014C0004099
:1005A00008C0004004C0004010B50C1C012812D146
:1005B0000221FFF7E7FE514A116801230B43136044
:1005C0004F4B1B686420001B5843642100F0D6F891
:1005D0004C4B186091E0022812D10221FFF7D2FEA5
:1005E000464A116802230B431360454B1B68642085
:1005F000001B5843642100F0C1F8434B18607CE0B5
:10060000042812D10321FFF7BDFE404A11680823D8
:100610000B4313603E4B1B686420001B584364214E
:1006200000F0ACF83B4B186067E00F2812D10221B4
:10063000FFF7A8FE354A116801230B431360344BC2
:100640001B686420001B5843642100F097F8324B6C
:10065000186052E0102812D10221FFF793FE2B4AB6
:10066000116802230B431360294B1B686420001B95
:100670005843642100F082F8284B18603DE00A28B6
:1006800012D10321FFF77EFE254A116801230B4397
:100690001360244B1B686420001B5843642100F046
:1006A0006DF8214B186028E00B2812D10321FFF7C9
:1006B00069FE1B4A116802230B431360194B1B6828
:1006C0006420001B5843642100F058F8174B186051
:1006D00013E00D2811D10221FFF754FE104A1168D2
:1006E00008230B4313600F4B1B686420001B584307
:1006F000642100F043F80E4B186010BD74C0004038
:1007000020C0004018C000401CC0004074400140A0
:100710002040014024400140184001401C4001405D
:100720007480014020800140188001401C800140FD
:1007300024800140F8B501200E49FFF7D1FE0B20BF
:100740000021FFF731FF0B203221FFF72DFF33216E
:10075000094C6425EE1708E04F1C0B20FFF724FF1F
:10076000F90FBD42714149423940231C013B002B26
:10077000FCD1F1E73075000010270000002243088B
:100780008B4274D303098B425FD3030A8B4244D359
:10079000030B8B4228D3030C8B420DD3FF2209029B
:1007A00012BA030C8B4202D31212090265D0030B5A
:1007B0008B4219D300E0090AC30B8B4201D3CB0350
:1007C000C01A5241830B8B4201D38B03C01A524192
:1007D000430B8B4201D34B03C01A5241030B8B4294
:1007E00001D30B03C01A5241C30A8B4201D3CB027F
:1007F000C01A5241830A8B4201D38B02C01A524164
:10080000430A8B4201D34B02C01A5241030A8B4266
:1008100001D30B02C01A5241CDD2C3098B4201D37E
:10082000CB01C01A524183098B4201D38B01C01AFC
:10083000524143098B4201D34B01C01A5241030973
:100840008B4201D30B01C01A5241C3088B4201D322
:10085000CB00C01A524183088B4201D38B00C01ACF
:10086000524143088B4201D34B00C01A5241411AF6
:1008700000D20146524110467047FFE701B5002003
:1008800000F0FCF802BDC0460029F7D003B5FFF721
:1008900075FF0EBC4243891A1847C04603460B43F6
:1008A0007FD4002243088B4274D303098B425FD369
:1008B000030A8B4244D3030B8B4228D3030C8B4295
:1008C0000DD3FF22090212BA030C8B4202D312127B
:1008D000090265D0030B8B4219D300E0090AC30B50
:1008E0008B4201D3CB03C01A5241830B8B4201D3FD
:1008F0008B03C01A5241430B8B4201D34B03C01AE6
:100900005241030B8B4201D30B03C01A5241C30A5D
:100910008B4201D3CB02C01A5241830A8B4201D3CE
:100920008B02C01A5241430A8B4201D34B02C01AB8
:100930005241030A8B4201D30B02C01A5241CDD25D
:10094000C3098B4201D3CB01C01A524183098B42A8
:1009500001D38B01C01A524143098B4201D34B0191
:10096000C01A524103098B4201D30B01C01A5241F4
:10097000C3088B4201D3CB00C01A524183088B427B
:1009800001D38B00C01A524143088B4201D34B0064
:10099000C01A5241411A00D20146524110467047D6
:1009A0005DE0CA0F00D04942031000D340425340DB
:1009B00000229C4603098B422DD3030A8B4212D39B
:1009C000FC22890112BA030A8B420CD389019211CD
:1009D0008B4208D3890192118B4204D389013AD00A
:1009E000921100E08909C3098B4201D3CB01C01ADF
:1009F000524183098B4201D38B01C01A52414309F2
:100A00008B4201D34B01C01A524103098B4201D3DF
:100A10000B01C01A5241C3088B4201D3CB00C01A4C
:100A2000524183088B4201D38B00C01A5241D9D264
:100A300043088B4201D34B00C01A5241411A00D2E5
:100A40000146634652415B10104601D34042002BE1
:100A500000D54942704763465B1000D3404201B560
:100A6000002000F00BF802BD0029F8D003B5FFF715
:100A700015FF0EBC4243891A1847C0467047C0464E
:0400000300000154A4
:00000001FF
