:10000000001000100D0100008501000085010000B6
:1000100000000000000000000000000000000000E0
:10002000000000000000000000000000850100004A
:1000300000000000000000008501000085010000B4
:100040008501000085010000850100008501000098
:100050008501000085010000850100008501000088
:100060008501000085010000850100008501000078
:100070008501000085010000850100008501000068
:100080008501000085010000850100008501000058
:100090008501000085010000850100008501000048
:1000A0008501000085010000850100008501000038
:1000B00085010000850100008D0100008501000020
:1000C00080B500AF0B4B00221A600B4B23221A6045
:1000D0000A4B0A4A126880218A431A60084B01229F
:1000E0001A60084B03221A60074B01221A60BD46B2
:1000F00080BDC046408004400880044038820440EF
:1001000044800440708004407480044080B584B012
:1001100000AF174BFB60174BBB60174A154BD31A48
:100120007B6007E0BB685A1CBA60FA68511CF96032
:1001300012781A707B685A1E7A60002BF2D10F4B2E
:10014000BB600F4A0D4BD31A7B6004E0BB685A1C9E
:10015000BA6000221A707B685A1E7A60002BF5D1B3
:10016000FFF7AEFF00F02CF8BD4604B080BDC046DE
:100170008C020000000000100000001000000010C1
:100180000000001080B500AFFEE7C04680B500AFAC
:10019000084B1B682022134009D0074B064A1268FF
:1001A000802149004A401A60044B20221A60BD4653
:1001B00080BDC04614800150FC3F00501C8001509F
:1001C00080B500AF234B234A126823490A431A60C3
:1001D000224B224A126807218A431A60204B204A88
:1001E0001268802149000A431A601E4B1D4A12689A
:1001F0001D490A401A601D4B1C4A126807218A4398
:100200001A601B4B1A4A126820218A431A60194B44
:10021000184A12688021C9050A431A60164B164A0B
:10022000126820218A431A60144B144A1268202154
:100230008A431A60124B124A126820210A431A603C
:10024000104B20221A60104B0F4A126820210A43DB
:100250001A60FEE7808004404000010060400440D6
:1002600000800050FC3F0050FFFEFFFFA040044014
:100270000080015000E100E004800150088001503E
:0C0280000C8001501C80015010800150C7
:00000001FF
