:1000000000100010C1000000890A00008B0A0000E7
:1000100000000000000000000000000000000000E0
:100020000000000000000000000000008D0A000039
:1000300000000000000000008F0A0000910A00008C
:10004000930A0000930A0000930A0000930A00003C
:10005000930A0000930A0000930A0000930A00002C
:10006000930A0000930A0000930A0000930A00001C
:10007000930A0000930A0000930A0000930A00000C
:10008000930A0000930A0000930A0000930A0000FC
:10009000930A0000930A0000930A0000930A0000EC
:1000A000930A0000930A0000930A0000930A0000DC
:1000B000930A0000930A0000930A0000930A0000CC
:1000C0000749084A084B9B1A05DD002408591051BE
:1000D00004349C42FADB054880470548004700008D
:1000E00064240000C000001038010010F50000007A
:1000F0006102000000210122144B10B519645A64FA
:1001000059645A64596C114AC907FBD523218E20C2
:100110008024916080001158A14311500121D868BA
:100120000A4A0842FAD0032010670020516750673E
:1001300051670122596F1142FBD08021034B4902C4
:100140009A67034AD36F0B43D36710BD0080044006
:1001500004800440000000000000000000000000D7
:10016000000000000000000000000000000000008F
:10017000000000000000000000000000000000007F
:10018000000000000000000000000000000000006F
:10019000000000000000000000000000000000005F
:1001A000000000000000000000000000000000004F
:1001B000000000000000000000000000000000003F
:1001C000000000000000000000000000000000002F
:1001D000000000000000000000000000000000001F
:1001E000000000000000000000000000000000000F
:1001F00000000000000000000000000000000000FF
:1002000010B5064C2378002B07D1054B002B02D0EC
:10021000044800E000BF0123237010BD3801001026
:10022000000000005824000008B5084B002B03D044
:100230000748084900E000BF07480368002B00D1C9
:1002400008BD064B002BFBD09847F9E700000000E3
:10025000582400003C01001038010010000000008C
:10026000164B002B00D1144B9D46402292029A1A45
:10027000924600218B460F461348144A121A00F08A
:1002800095FF0F4B002B00D098470E4B002B00D052
:1002900098470020002104000D000D48002802D0DE
:1002A0000C4800E000BF00F047FF2000290000F0EC
:1002B00065FA00F08DFDC046000008000010001037
:1002C000000000006F0700003801001098020010C5
:1002D000000000000000000010B5164C0022A35ED4
:1002E000013304D114481549212200F0DBFC01211F
:1002F0002388E0681B051B0F99400B1C0268134301
:1003000003600F4800F04CFD0022A35E013304D1CE
:1003100009480A49212200F0C5FC01212388E06830
:100320001B051B0F994002688A430260044800F0D5
:1003300037FDD2E754010010141F00002C1F0000ED
:10034000CDCC4C3E10B5064C1022201C002100F0F4
:100350002DFFAD21201C490100F027FC10BDC04637
:100360005401001003220B4B10B51C682240012AD7
:100370000BD080225205F02424061419246810C2E0
:10038000054CA242F7D101221A60044B8000C0182C
:10039000016010BD00800440C0000010400000104B
:1003A00010B5041C431C05D10E480F49182200F05B
:1003B00079FC02E001210C280DD00C4B01219C425C
:1003C00009D00B4B9C4206D00A4B9C4203D00A4BEF
:1003D000E1184B425941201C00F0F4F82005000FB1
:1003E00010BDC046191F0000711F0000740B0000F3
:1003F000781000007C11000080EDFFFF70B5051C37
:1004000001804B1C12D0A0230C04240F2404DB0514
:10041000081CE618FFF7C4FF04238340F018044BC0
:100420006860E318AB60034BE418EC6070BDC04635
:1004300000800050FC3F005008B50023C05E00F073
:10044000DBF808BD38B50022835E051C0C1C0133A7
:1004500004D10D480D49382200F024FC29880905F3
:10046000090F002C08D0012C0CD18C40211CAA684B
:1004700013681943116005E001228A40A8680368E7
:100480009343036038BDC046141F0000711F000075
:1004900038B50022835E051C0C1C013304D10A48C8
:1004A0000A49212200F0FEFB2B88E9681B051A0F80
:1004B000012308689340002C01D0034301E09843D6
:1004C000031C0B6038BDC046141F0000CE1F000087
:1004D00000B591B000F008FCAD216846490100F07C
:1004E00064FBEA2104A8C90000F05FFBAD2108A865
:1004F000490100F05AFBEA210CA8C90000F055FBA5
:1005000068460121FFF7C4FF04A80021FFF7C0FFE0
:1005100008A80021FFF7BCFF0CA80121FFF7B8FFD6
:10052000962000F049FC68460021FFF7B1FF04A8BF
:100530000121FFF7ADFF08A80121FFF7A9FF0CA8D3
:100540000021FFF7A5FF962000F036FCD8E7000059
:1005500070B5051C0C1CA0B000F0C6FB291C684639
:10056000221C00F08FFE051E03DC00F0EBFB20B028
:1005700070BD0A4B0A4E1B68002B04D1301C094980
:10058000094A00F011FA00246B46301C195D013451
:1005900000F074FAAC42F7D1E7E7C0466C020010F5
:1005A0008C020010A8170000A41600000FB407B5B5
:1005B00004A901C90191FFF7CBFF03B008BC04B047
:1005C0001847000038B5041C0D1C431C04D1074813
:1005D0000749152200F066FB064BE4B2E418072336
:1005E00022681D409A431543256038BD191F00003D
:1005F000402000000040044038B5051C0C1C431C82
:1006000004D10C480C491E2200F04CFB18220B4B65
:10061000E8B2C018036893431A1C03232340DB008D
:1006200013436407064AE40F1340A4021C4304600A
:1006300038BDC046191F00004020000000400440A3
:10064000FFFBFFFF084B10B51B68002B0AD1074CBE
:100650000749201C074A00F0A7F99621201C8901B0
:1006600000F0C6F810BDC0466C0200108C020010ED
:10067000A8170000A41600007047000008B5031C6E
:100680000020022B0DDD0749033B9B005A585850B0
:10069000824204D01368101C5B68984701E0012077
:1006A000404208BD6801001070B50C1C151C0228E2
:1006B00010DC0F4B1B68002B01D1FFF7C3FF66193D
:1006C000B44205D021780B4800F0D8F90134F7E79F
:1006D000281C0BE00338084B8000C058002803D0CA
:1006E00003681B68984701E00120404270BDC04686
:1006F0006C0200108C0200106801001010B50C1C78
:1007000002280BDC0C4B1B68002B01D1FFF79AFF72
:100710000A4800F0ADF9207001200BE00338084BC7
:100720008000C058002803D003689B68984701E008
:100730000120404210BDC0466C0200108C02001027
:100740006801001008B5031C0020022B0BDD033BE1
:1007500005489B001858002803D003681B69984778
:1007600001E00120404208BD68010010704708B553
:10077000FFF782FFFFF7FAFF08BD704708B5FFF7E4
:10078000FCFFFFF7A9FD08BD0C4910B50B68181850
:10079000EFF30882904205D30C220120084B40421F
:1007A0001A600AE0074A1268002A04D0064C24683E
:1007B000A2189042F0D20860181C10BDC0000010B2
:1007C00094020010640100106802001038B5074C54
:1007D000051C2368986800F0C7FB2368D86800F000
:1007E000C3FB002D01D0FFF773FEFEE728010010C8
:1007F000F0B501244E4B91B00F901C604D4B0E0193
:100800001F680D1C381C311C01F088F8311C83B2A4
:10081000381C029301F008F900294DD07B000C939D
:10082000BB000D9309930C9B089505930023079734
:100830000B950194049403936B4600261B790A934D
:10084000089B0693F3B20E93059B002B05DA181C48
:10085000069901F063F8040904E00998069901F08B
:100860005DF8440901346408A4B2002C3DD0002E88
:1008700002D0012C00D80224019B0798F118614393
:10088000C90001F04BF801304008401B00F09BFA12
:100890000B9B984207DAA8422CD00A9B0B9004933A
:1008A0000E9B02940393069B01365B190A9A0693EA
:1008B000F3B29342C6D323E00494039180240F9BA8
:1008C0001B68DA682243DA60029A120A92B25A600E
:1008D0006A46107A049A18601101039A11439962CA
:1008E000DA68A243DA6011B0F0BD341C631E9C418B
:1008F0000134C1E70A9B029404930E9B0393DDE746
:10090000019B0F2BDAD00C9A019B94460133019383
:10091000079B0D9ADB190793059B63449446059347
:10092000099B63440993089B5B19089384E7C046BD
:1009300098800440C4000010F8B55D1E061C0C1C15
:10094000171C012D04D913481349BC2200F0AAF941
:10095000053C032C04D911480F49BD2200F0A2F92F
:10096000042F04D90E480C49BF2200F09BF9013F27
:10097000FFB2032F03D80B4B0121DA5701E000220D
:10098000111CAD002C43C90030680C4312012243F6
:10099000C260F8BDD8200000FD2000005C210000EE
:1009A0007F21000050220000F7B5041C0F1C081C1A
:1009B0002749161C00F03AF92649051C301C00F0A6
:1009C00035F9011C281C00F011F9214B051C01937D
:1009D000431C04D1204821493C2200F063F98021C6
:1009E0001F4A4901D36F25600B43D367012396212A
:1009F000AB600023201C6B608901FFF7F9FE012327
:100A0000201C08210022FFF797FF381C019900F0F5
:100A1000D1F8301C0F4900F0CDF87B1C03D0381CF6
:100A20000221FFF7E9FD731C03D0301C0221FFF700
:100A3000E3FD0C4B9D4209D10023012263600A4B68
:100A40000A481A60211C073200F0A7FBF7BDC04618
:100A5000142200009C20000003220000FD20000062
:100A600004800440008000406C0200108C020010E2
:100A700003685A69D207FCD51868704703685A6939
:100A80009206FCD519607047FEE7FEE7FEE7FEE739
:100A9000FEE7FEE738B5104B1A68002A1AD1012587
:100AA00080210E4A1D60D36FC9000B43D3670C4BE6
:100AB0000C4C186802230C49636000F02FFF0138CA
:100AC000E0600A4965601320FFF74CFC8022084B68
:100AD00012031A6038BDC046700200100480044042
:100AE000C40000100080014040420F004D0C000087
:100AF00000E100E008B5044B1B68002B01D1FFF7B3
:100B0000C9FF024B986808BD7002001000800140C8
:100B10000121034B98615A690A435A617047C046E4
:100B2000008001400121024A53698B4353617047A1
:100B3000008001400122014B1A6070470080014093
:100B400038B50022835E051C0C1C013304D10A4811
:100B50000A49212200F0A6F82B88E9681B051A0F24
:100B6000012308689340002C01D0034301E098431F
:100B7000031C0B6038BDC046141F0000CE1F0000D0
:100B800070B50D1C041C161CFFF738FC6B1C0BD039
:100B9000201C311CFFF7D4FF201C0121FFF752FC61
:100BA000201C0021FFF748FC70BD08B50022FFF7AC
:100BB000E7FF08BD10B5041C431C13D000228B5E58
:100BC0005A1C0CD0A34208D1201C8968FFF7FAFCFC
:100BD000201C0021FFF710FD04E00C31EEE7024875
:100BE00000F072F810BDC0465422000008B5031E84
:100BF0008B420AD00B1C421C07D0031C4A1C04D099
:100C0000034800F061F801235B42181C08BDC04690
:100C10006522000000228B5E5A1C05D0834201D160
:100C2000486802E00C31F5E7181C704710B5041C49
:100C3000431C07D0FFF7EEFF041C431C02D10248FF
:100C400000F042F8201C10BD7622000008B50248D2
:100C500000F004F808BDC046C822000038B503689B
:100C6000041CDB68984763685A682368002A02D12D
:100C70009B68984714E05B681568984763682D1A6D
:100C8000002D08DC5A68916859601B68002BEAD077
:100C900050689847E7E75A68216810680B699847D9
:100CA00038BD000070B5061C0D1C141C00F01CF8AB
:100CB000311C2A1C0348231CFFF778FCFFF708FCB3
:100CC00070BDC046D02200000FB407B504A901C909
:100CD0000191FFF73DFC012000F07AF8EFF310835B
:100CE000012098437047000038B5FFF7F7FF012552
:100CF0006840C5B272B60E4C2368002B01D10D4B73
:100D00001D702368013304D10B480C493522FFF7CD
:100D1000C9FF2368002B06D0002D04D108480749DD
:100D20003922FFF7BFFF23680133236038BDC04677
:100D30007C02001080020010012300002723000025
:100D40006A23000010B50C4C2368002B13D0FFF76A
:100D5000C5FF002804D0094809494A22FFF7A2FF2D
:100D60002368013B23602368002B04D1054B1B78CB
:100D7000002B00D162B610BD7C0200106A23000077
:100D8000272300008002001038B5041CFFF7B2FED4
:100D9000051CFFF7AFFE401BA042FAD338BD000090
:100DA00008B5044900F04CFE00F07CFFFFF7ECFFB3
:100DB00008BDC0460024744908B5FA239B00584377
:100DC000FFF7E2FF08BDC317C01858407047000086
:100DD000084B10B5041C002B02D0002100E000BF1E
:100DE000054B1868836A002B00D09847201CFFF73A
:100DF000EDFCC04600000000E0230000F7B58A8942
:100E0000051C0C1C13075ED44B68002B02DC0B6C1A
:100E1000002B1ADDE76A002F17D000232E682B6005
:100E200080235B011A4001D0626D15E0281C216A05
:100E30000123B847021C431C0ED12B68002B0BD09A
:100E40001D2B01D0162B02D12E6000205EE0402128
:100E5000A3890B43A38159E0A3895B0706D5636887
:100E6000D21A636B002B01D0236CD21A0023281CEA
:100E7000216AE76AB847A389421C06D12A68002A7A
:100E800003D01D2A01D0162A19D1002262602269DE
:100E90002260DB0405D5431C02D12B68002B00D156
:100EA0006065616B2E600029CFD0231C44339942CA
:100EB00002D0281C00F03CFF0020606326E04022A6
:100EC0001343A38122E00F69002FBED00B680F608F
:100ED000DB1B01930023920700D14B69A360019BA8
:100EE000002BB2DD281C216A3A1C019BA66AB04780
:100EF000002806DC40220120A38940421343A3813D
:100F000004E0019B3F181B1A0193E8E7FEBD0000B7
:100F100038B50B69051C0C1C002B01D100201CE00E
:100F2000002804D08369002B01D100F073F80B4B2B
:100F30009C4201D16C6808E0094B9C4201D1AC682D
:100F400003E0084B9C4200D1EC680C22A35E002B0E
:100F5000E4D0281C211CFFF751FF38BD802300007E
:100F6000A0230000C023000008B5011E05D1054BD9
:100F70000549186800F0BEF803E0044B1868FFF755
:100F8000C7FF08BDE0230000110F0000280100107A
:100F900008B5024900F0AEF808BDC046110F0000C8
:100FA000002310B5041C03604360836081814366A5
:100FB000C281036143618361191C08225C3000F027
:100FC000F5F8054B24626362044BA362044BE362B1
:100FD000044B236310BDC046BD110000E5110000A5
:100FE0001D1200004912000070B568254B1E5D43BC
:100FF0000E1C291C743100F093FE041E08D0002141
:101000002A1C016046600C30A060683200F0CEF807
:10101000201C70BD836913B5002B28D18364C36481
:101020000365134B134A1B6882620193984201D1F6
:1010300001238361041C00F01FF86060201C00F095
:101040001BF8A060201C00F017F80421E0600022CB
:101050006068FFF7A5FFA06809210122FFF7A0FF44
:10106000E06812210222FFF79BFF0123A36113BD59
:10107000E0230000910F0000F8B51D4B061C1D6811
:10108000AB69002B02D1281CFFF7C4FF4835AC68C0
:101090006B68013B05D40C22A75E002F10D068348A
:1010A000F7E72B68002B06D1301C0421FFF79CFFCB
:1010B0002860002801D02D68E9E70C23336016E092
:1010C0000123201C5B42E3810233A3816766276012
:1010D000A760676027616761A7615C30391C0822DF
:1010E00000F064F8201C6763A763A764E764F8BD99
:1010F000E0230000F7B5041C071C002601914834CA
:10110000002C16D06368A5680093009B013B0093F8
:101110000DD4AB89012B08D90E22AB5E013304D06C
:10112000381C291C019B984706436835EDE7246865
:10113000E6E7301CFEBD00000E4B70B500251E1CFE
:101140000D4CE41AA410A54204D0AB00F358984704
:101150000135F8E700F0D2FE084B00251E1C084CB4
:10116000E41AA410A54204D0AB00F3589847013507
:10117000F8E770BD2C0100102C0100102C010010AC
:1011800034010010C9B28218904204D003788B4217
:1011900002D00130F8E700207047002310B59342D9
:1011A00003D0CC5CC4540133F9E710BD031C821892
:1011B000934202D019700133FAE7704738B50C1C1E
:1011C0000E25495F00F082FB002803DB636D1B18CE
:1011D000636503E0A289024B1340A38138BDC0467A
:1011E000FFEFFFFFF8B51E1C8B89051C0C1C171C9C
:1011F000DB0505D50E23C95E0022022300F076F838
:10120000A289054B281C1340A3813A1C0E23E15EE2
:10121000331C00F045F8F8BDFFEFFFFF38B50C1C9C
:101220000E25495F00F062F8A389421C03D1054AEC
:101230001340A38104E0802252011343A38160651F
:1012400038BDC046FFEFFFFF08B50E23C95E00F0B2
:101250003BF808BD30B59BB00091049108496D463C
:1012600002910591012182244942E981A400694645
:10127000AC8100F0AFF80023009A13701BB030BDB2
:10128000FFFFFF7F38B5051C0C1C131C034A291CEB
:101290001068221CFFF7DEFF38BDC0462801001091
:1012A00038B5051C0020074C2060081C111C1A1CB6
:1012B000FFF7FAF9431C03D12368002B00D02B6001
:1012C00038BDC0469402001038B50023064C051CFA
:1012D000081C2360FFF7D2F9431C03D12368002BBD
:1012E00000D02B6038BDC0469402001038B5051CF4
:1012F0000020074C2060081C111C1A1CFFF722FA62
:10130000431C03D12368002B00D02B6038BDC0469E
:1013100094020010F0B58E6885B0071C0C1C039277
:101320000193B34245D390238A89DB001A423DD012
:1013300003250969236801985B1A029363695D4379
:10134000EB0F5D19029B6D1001331B189D4200D2FB
:101350001D1C381C53050FD5291C00F0E1FC061E8E
:1013600013D0029A2169FFF718FFA289184B134086
:1013700080221343A38111E02A1C00F0D5FC061E35
:101380000CD1381C216900F0D3FC0C234022012031
:101390003B60A38940421343A38117E0029B26616F
:1013A000F61826606561019EED1AA560019BB342A7
:1013B00000D2019E321C2068039900F09BFA0020A5
:1013C000A3689B1BA36023689E19266005B0F0BD2F
:1013D0007FFBFFFFF0B59FB0029005938B890E1C39
:1013E000171C1B0610D50B69002B0DD1402100F0F6
:1013F00097FC30603061002804D10C23029A013838
:101400001360D0E040237361002306AD6B6120338D
:101410006B761033AB763C1C2378002B03D1E31B97
:10142000049312D003E0252BF9D00134F4E7049B98
:101430000298311C3A1CFFF76DFF431C00D1ACE051
:101440006A69049B944663446B612378002B00D146
:10145000A3E00122002352426A6002A954325218CA
:1014600001342B60EB60AB601370AB654F4F21789C
:10147000381C0522FFF786FE002808D0C01B012774
:101480008740381C2B68013418432860EEE72B682E
:10149000DA0604D55322202102A8121811701A0767
:1014A00004D553222B2102A81218117022782A2A5F
:1014B00001D0099B0EE0059A111D12680591002AC2
:1014C00001DB099204E05242EA60022213432B60DE
:1014D000013409E02278303A092A04D80A214B4322
:1014E00001349B18F6E7099323782E2B18D16378E3
:1014F0002A2B09D1059B02341A1D1B680592002B6B
:101500000DDA01235B420AE0002301342278303AED
:10151000092A04D80A214B4301349B18F6E70793A4
:10152000234F2178381C0322FFF72CFE002807D018
:10153000C01B40278740381C2B68013418432860A3
:1015400021781C480622671C2976FFF71BFE00281D
:1015500012D0194B002B06D10722059B073393436A
:101560000833059314E005AB00930298291C321C44
:10157000124B00E000BF07E005AB00930298291C66
:10158000321C0E4B00F08AF80390039B013304D009
:101590006B69039A9B186B613DE7B3890B985B06F7
:1015A00001D5012040421FB0F0BDC046E423000039
:1015B000EA230000EE2300000000000015130000E5
:1015C000F7B5171C01930A698B6800900C1C9342B5
:1015D00000DA131C221C3B6043321278002A01D02F
:1015E00001333B6023689B0602D53B6802333B60B6
:1015F000062523681D401ED0231C43331B785A1E2A
:101600009341226892061CD53020E1184031C87001
:10161000211C5A1C45310978A21840320233D1707E
:101620000FE0221C0123009801991932089EB0474F
:10163000431C0ED00135E3683A689B1A9D42F0DBEB
:10164000DAE7221C009801994332089DA847431C01
:1016500002D10120404220E006232068E1683A6878
:1016600003400025042B03D18D1AEB43DB171D40EB
:10167000A3682269934201DD9B1AED180027AF424F
:101680000ADA221C0123009801991A32089EB047F9
:10169000431CDED00137F2E70020FEBDF0B58BB071
:1016A00006920A1C43320793059004920A7E0C1C92
:1016B000109B6E2A00D1A8E011D8632A22D009D845
:1016C000002A00D1B2E0582A00D0C2E045310A70A9
:1016D0007C4A4FE0642A1DD0692A1BD0B9E0732AE6
:1016E00000D1A7E009D86F2A29D0702A00D0B0E035
:1016F000202209680A43226037E0752A1FD0782A21
:1017000033D0A6E00D1C1A684235111D196013680C
:101710002B70A1E021681A68080603D5111D196015
:10172000166805E04906F9D5111D19600023D65E3B
:10173000002E3BDA2D23049A7642137036E021689E
:101740001A68080603D5111D1960166805E04906D8
:10175000F9D5111D19601668B6B25A4B227E039353
:101760000A276F2A1DD108271BE0221C7821453249
:101770001170554A19680392081D226818600E6896
:10178000100602D4500600D5B6B2D30702D52023E6
:101790001A4322601027002E03D1202322689A4387
:1017A0002260231C002243331A7002E00A27454BB3
:1017B00003936368A360002B03DB04222168914339
:1017C0002160002E02D1049D002B0ED0049D301C00
:1017D000391C00F029F9039B013D5B5C301C2B7028
:1017E000391C00F09BF8061EF1D1082F09D123689F
:1017F000DB0706D563682269934202DC3023013D92
:101800002B70049B5B1B23612BE009681A68080698
:1018100007D4490605D5111D19601368A28A1A80DC
:1018200004E0111D1960136862691A600023049DA9
:10183000236116E01A68111D196015680021281C23
:101840006268FFF79FFC002801D0401B606063685E
:1018500003E0251C42352A70012323610023049AEA
:101860001370079B05980093211C069B09AAFFF79C
:10187000A7FE431C02D10120404221E02A1C23691B
:1018800005980699079DA847431CF4D023689B0739
:1018900005D4099BE068984212DA181C10E0002574
:1018A000E368099A9B1A9D42F3DA221C01230598EA
:1018B00006991932079EB047431CDCD00135EFE78B
:1018C0000BB0F0BDF52300000624000038B5051C60
:1018D0000020074C2060081C111C1A1CFEF70EFF8C
:1018E000431C03D12368002B00D02B6038BDC046B9
:1018F0009402001010B5814208D28B18984205D28C
:101900009B1A013A09D3995C8154FAE70023934268
:1019100003D0CC5CC4540133F9E710BD0022430866
:101920008B4274D303098B425FD3030A8B4244D3A7
:10193000030B8B4228D3030C8B420DD3FF220902E9
:1019400012BA030C8B4202D31212090265D0030BA8
:101950008B4219D300E0090AC30B8B4201D3CB039E
:10196000C01A5241830B8B4201D38B03C01A5241E0
:10197000430B8B4201D34B03C01A5241030B8B42E2
:1019800001D30B03C01A5241C30A8B4201D3CB02CD
:10199000C01A5241830A8B4201D38B02C01A5241B2
:1019A000430A8B4201D34B02C01A5241030A8B42B5
:1019B00001D30B02C01A5241CDD2C3098B4201D3CD
:1019C000CB01C01A524183098B4201D38B01C01A4B
:1019D000524143098B4201D34B01C01A52410309C2
:1019E0008B4201D30B01C01A5241C3088B4201D371
:1019F000CB00C01A524183088B4201D38B00C01A1E
:101A0000524143088B4201D34B00C01A5241411A44
:101A100000D20146524110467047FFE701B5002051
:101A200000F00CF802BDC0460029F7D003B5FFF75F
:101A300075FF0EBC4243891A1847C0467047C0461E
:101A4000F0B55F4656464D464446F0B44502460062
:101A5000C40F83B00F1C6D0A360EA34645D0FF2E6F
:101A600025D080231B041D4300239A46ED007F3EB2
:101A700001937B025B0A98467800FB0F000E9946A3
:101A800040D0FF2838D0802342461B041343DB009C
:101A9000984600237F384A46019F30186240411C17
:101AA0001F430F2F69D87D4EBF00F659B746002D52
:101AB00045D108230193063B9A46DAE793465346FD
:101AC000022B2FD15B46012400251C40FF236D0211
:101AD000DB056D0AE4071D432543281C03B03CBC0D
:101AE00090469946A246AB46F0BD002D2CD104236A
:101AF0000193033B9A46BCE743465A4253410322B3
:101B0000D31AC8E742460123002AC4D0404600F059
:101B1000E9F84246431F9A4076235B42181A9046E2
:101B20000023B8E7032B00D1ADE0012B00D08CE0FF
:101B30005B4654461C40E4B200230025C7E70C2353
:101B40000193093B9A4694E7281C00F0CBF87626CF
:101B5000431F9D4000237642361A01939A4688E738
:101B600080250024ED03FF23B1E74546CB469A4686
:101B7000A5E7454693469A46A1E743462C041B0C2D
:101B80009C46230C444626041C1C360C2F0C744324
:101B9000351C66467D4373437743EB18260C9E192C
:101BA000B54203D980235B029C4667442404330476
:101BB000240C1B199D016C1EA5419B0E360C2B435A
:101BC000BD19AD011D432B0104D5012368081D403B
:101BD0000543081C031C7F33002B2CDD690704D050
:101BE0000F212940042900D00435290103D52C4BAD
:101BF0001D40031C8033FE2B17DD0124FF231440FE
:101C0000002564E78020C003054209D04346034213
:101C100006D1454605436D026D0A4C46FF2356E743
:101C200005436D026D0AFF2351E70124AD016D0AE2
:101C3000DBB214404BE77E235B421B1A1B2B07DDF4
:101C4000012400231440002541E7081C5A46C1E73F
:101C50009E30291C8540D940681E85410D436B0785
:101C600004D00F232B40042B00D004356B0104D586
:101C7000012401231440002529E70124AD016D0A48
:101C80001440002323E78023DB031D4301245B462C
:101C90006D0223401C1C6D0AFF2318E71824000066
:101CA000FFFFFFF74202510A4200C30F120E00204D
:101CB0007E2A0DDD9D2A0CDC802000040143952A3C
:101CC0000ADC9620821AD1400A1C58424240D018A1
:101CD0007047034A9818FBE7963A91400A1CF4E7CC
:101CE000FFFFFF7F1C2101231B04984201D3000C3E
:101CF00010391B0A984201D3000A08391B0998427F
:101D000001D30009043902A2105C40187047C04694
:101D100004030202010101010000000000000000B4
:101D200008B500F04FF808BD08B500F0A3F808BDED
:101D300008B500F001F808BD30B500293ED00439DF
:101D40000B68002B00DAC9181D4A1368141C002BFD
:101D500002D14B60116031E099420DD208680A1837
:101D60009A4203D11368C3180B6053684B6021601B
:101D700024E08A4203D8131C5A68002AF9D11D684E
:101D80005C198C420BD10968691858181960904287
:101D900014D110685268091819605A600EE08C421C
:101DA00002D90C23036009E008680C18944203D19F
:101DB00014685268001908604A60596030BDC04616
:101DC00088020010032370B5CC1C9C430834051C0A
:101DD0000C2C01D20C2405E0002C03DA0C2300208B
:101DE0002B6042E08C42F9D3204A1368101C191C66
:101DF000002913D00A68121B0DD40B2A02D90A60DD
:101E00008B181FE08B4202D15A6802601BE04A68BF
:101E10005A600B1C17E00B1C4968E9E7144E336845
:101E2000002B03D1281C00F04BF83060281C211C2B
:101E300000F046F8031C421CD0D00322C61C964377
:101E400086420AD11C60181C07210B301A1D8843DA
:101E5000821A0AD05142995007E0311A281C00F02A
:101E60002FF8431CBAD0331CECE770BD8802001079
:101E700084020010F8B5061C0C1C151C002904D1A6
:101E8000111CFFF74DFF041C18E0002A03D1FFF7D7
:101E90004FFF2C1C12E000F025F8A8420ED2301C97
:101EA000291CFFF73DFF071E07D0211C2A1CFFF746
:101EB00074F9301C211CFFF73BFF3C1C201CF8BDB3
:101EC00038B50023064C051C081C2360FEF75CFC9B
:101ED000431C03D12368002B00D02B6038BDC046C3
:101EE000940200100B1F1A68101F002A04DA8918C8
:101EF00004390B68D018043870470000F8B5C046A4
:101F0000F8BC08BC9E467047F8B5C046F8BC08BC93
:101F10009E4670476F626A2D3E70696E20213D209B
:101F20002850696E4E616D65294E43002E2E2F6D2F
:101F30006265642F5441524745545F4C50433131E0
:101F400031342F5441524745545F4E58502F54411D
:101F5000524745545F4C5043313158585F313143FB
:101F600058582F6770696F5F6F626A6563742E6877
:101F700000433A5C4A656E6B696E735C776F726B97
:101F800073706163655C6D6265642D322D62756985
:101F90006C642D6C6962726172795C7461726765E0
:101FA00074735C5441524745545F4E58505C5441E1
:101FB000524745545F4C5043313158585F3131439B
:101FC00058585C6770696F5F6170692E6300433AAF
:101FD0002F4A656E6B696E732F776F726B737061CA
:101FE00063652F6D6265642D322D6275696C642D99
:101FF0006C6962726172792F4255494C442F6D624F
:1020000065642F5441524745545F4C504331313140
:10201000342F5441524745545F4E58502F5441522B
:102020004745545F4C5043313158585F3131435824
:10203000582F6770696F5F6F626A6563742E6800FE
:10204000433A5C4A656E6B696E735C776F726B7353
:10205000706163655C6D6265642D322D6275696CBB
:10206000642D6C6962726172795C74617267657407
:10207000735C5441524745545F4E58505C54415232
:102080004745545F4C5043313158585F31314358C4
:10209000585C70696E6D61702E630000202700002F
:1020A00000800040020000003C340000008000403E
:1020B00002000000883100000080004003000000A2
:1020C000A41600000080004001000000FFFF000097
:1020D000FFFFFFFF000000002873746F705F6269EC
:1020E0007473203D3D203129207C7C202873746F3F
:1020F000705F62697473203D3D20322900433A5C71
:102100004A656E6B696E735C776F726B7370616337
:10211000655C6D6265642D322D6275696C642D6C31
:102120006962726172795C746172676574735C5420
:1021300041524745545F4E58505C544152474554B4
:102140005F4C5043313158585F31314358585C73BC
:10215000657269616C5F6170692E630028646174E7
:10216000615F62697473203E20342920262620286E
:10217000646174615F62697473203C2039290028AE
:10218000706172697479203D3D2050617269747983
:102190004E6F6E6529207C7C20287061726974798D
:1021A000203D3D205061726974794F646429207C20
:1021B0007C2028706172697479203D3D20506172E5
:1021C0006974794576656E29207C7C20287061725F
:1021D000697479203D3D20506172697479466F724F
:1021E0006365643129207C7C202870617269747970
:1021F000203D3D20506172697479466F7263656459
:1022000030290028696E74297561727420213D207F
:102210004E4300002428000000800040020000001F
:1022200048350000008000400200000084300000BB
:102230000080004003000000A8170000008000405C
:1022400001000000FFFF0000FFFFFFFF0000000093
:1022500000010203636F756C64206E6F74207069F7
:102260006E6F75740070696E6D6170206D69732D8D
:102270006D617463680070696E6D6170206E6F745B
:1022800020666F756E6420666F722070657269706B
:10229000686572616C0070696E6D6170206E6F743C
:1022A00020666F756E6420666F722066756E63744B
:1022B000696F6E00950A0000F50A0000250B00000A
:1022C000350B0000110B0000B42200007402001056
:1022D0006D626564206173736572746174696F6E99
:1022E000206661696C65643A2025732C2066696CF0
:1022F000653A2025732C206C696E65202564200AC0
:1023000000696E746572727570745F656E61626C7F
:10231000655F636F756E746572203C2055494E543D
:1023200033325F4D415800433A5C4A656E6B696ECB
:10233000735C776F726B73706163655C6D6265640B
:102340002D322D6275696C642D6C696272617279CF
:102350005C706C6174666F726D5C6D6265645F6306
:102360007269746963616C2E6300696E7465727260
:10237000757074735F64697361626C6564000000FA
:10238000000000000000000000000000000000004D
:10239000000000000000000000000000000000003D
:1023A000000000000000000000000000000000002D
:1023B000000000000000000000000000000000001D
:1023C000000000000000000000000000000000000D
:1023D00000000000000000000000000000000000FD
:1023E000C8000010232D302B2000686C4C0065665F
:1023F0006745464700303132333435363738394156
:10240000424344454600303132333435363738396B
:1024100061626364656600007A1B0000721B000045
:10242000721B00006A1B0000BC1A0000BC1A0000EE
:10243000601B00006A1B0000BC1A0000601B00004B
:10244000BC1A00006A1B0000BE1A0000BE1A000081
:0C245000BE1A0000041C00000000000088
:08245C0004DEFF7F0100000017
:1024640098020010006CDC020000000080230000D1
:10247400A0230000C02300000000000000000000B2
:102484000000000000000000112200000000000015
:102494000000000000000000000000000000000038
:1024A4000000000000000000000000000000000028
:1024B4000000000000000000000000000000000018
:1024C4000000000000000000C80000102902000005
:0824D4004503000001020000B5
:04000003000000C138
:00000001FF
