:10000000001000100D0100008501000085010000B6
:1000100000000000000000000000000000000000E0
:10002000000000000000000000000000850100004A
:1000300000000000000000008501000085010000B4
:100040008501000085010000850100008501000098
:100050008501000085010000850100008501000088
:100060008501000085010000850100008501000078
:100070008501000085010000850100008501000068
:100080008501000085010000850100008501000058
:100090008501000085010000850100008501000048
:1000A0008501000085010000850100008501000038
:1000B0008501000085010000850100008501000028
:1000C00080B500AF0B4B00221A600B4B23221A6045
:1000D0000A4B0A4A126880218A431A60084B01229F
:1000E0001A60084B03221A60074B01221A60BD46B2
:1000F00080BDC046408004400880044038820440EF
:1001000044800440708004407480044080B584B012
:1001100000AF174BFB60174BBB60174A154BD31A48
:100120007B6007E0BB685A1CBA60FA68511CF96032
:1001300012781A707B685A1E7A60002BF2D10F4B2E
:10014000BB600F4A0D4BD31A7B6004E0BB685A1C9E
:10015000BA6000221A707B685A1E7A60002BF5D1B3
:10016000FFF7AEFF00F012F8BD4604B080BDC046F8
:100170001C02000000000010000000100000001031
:100180000000001080B500AFFEE7C04680B582B029
:1001900000AF1B4B1A4A12681A490A431A601A4BDD
:1001A000194A126807218A431A60184B174A1268C5
:1001B000802189000A431A60154B154A12681549B7
:1001C0000A401A60124B124A1268802189000A43C1
:1001D0001A60114B7B607B68013B7B607B68002B66
:1001E000F9D10B4B0A4A12680A490A401A600A4BB5
:1001F0007B607B68013B7B607B68002BF9D1E1E78A
:1002000080800440400001006440044000800050B1
:0C021000FC3F0050FFFDFFFF40420F00CC
:00000001FF
